{
  "address": "0x8Ea0a7Dc3120Ec0edD2671D0b7432d365919127a",
  "abi": [
    {
      "inputs": [
        {
          "internalType": "address",
          "name": "priceFeedAddress",
          "type": "address"
        },
        {
          "internalType": "string",
          "name": "lowSvg",
          "type": "string"
        },
        {
          "internalType": "string",
          "name": "highSvg",
          "type": "string"
        }
      ],
      "stateMutability": "nonpayable",
      "type": "constructor"
    },
    {
      "anonymous": false,
      "inputs": [
        {
          "indexed": true,
          "internalType": "address",
          "name": "owner",
          "type": "address"
        },
        {
          "indexed": true,
          "internalType": "address",
          "name": "approved",
          "type": "address"
        },
        {
          "indexed": true,
          "internalType": "uint256",
          "name": "tokenId",
          "type": "uint256"
        }
      ],
      "name": "Approval",
      "type": "event"
    },
    {
      "anonymous": false,
      "inputs": [
        {
          "indexed": true,
          "internalType": "address",
          "name": "owner",
          "type": "address"
        },
        {
          "indexed": true,
          "internalType": "address",
          "name": "operator",
          "type": "address"
        },
        {
          "indexed": false,
          "internalType": "bool",
          "name": "approved",
          "type": "bool"
        }
      ],
      "name": "ApprovalForAll",
      "type": "event"
    },
    {
      "anonymous": false,
      "inputs": [
        {
          "indexed": true,
          "internalType": "uint256",
          "name": "tokenId",
          "type": "uint256"
        },
        {
          "indexed": false,
          "internalType": "int256",
          "name": "highValue",
          "type": "int256"
        }
      ],
      "name": "CreatedNFT",
      "type": "event"
    },
    {
      "anonymous": false,
      "inputs": [
        {
          "indexed": true,
          "internalType": "address",
          "name": "previousOwner",
          "type": "address"
        },
        {
          "indexed": true,
          "internalType": "address",
          "name": "newOwner",
          "type": "address"
        }
      ],
      "name": "OwnershipTransferred",
      "type": "event"
    },
    {
      "anonymous": false,
      "inputs": [
        {
          "indexed": true,
          "internalType": "address",
          "name": "from",
          "type": "address"
        },
        {
          "indexed": true,
          "internalType": "address",
          "name": "to",
          "type": "address"
        },
        {
          "indexed": true,
          "internalType": "uint256",
          "name": "tokenId",
          "type": "uint256"
        }
      ],
      "name": "Transfer",
      "type": "event"
    },
    {
      "inputs": [
        {
          "internalType": "address",
          "name": "to",
          "type": "address"
        },
        {
          "internalType": "uint256",
          "name": "tokenId",
          "type": "uint256"
        }
      ],
      "name": "approve",
      "outputs": [],
      "stateMutability": "nonpayable",
      "type": "function"
    },
    {
      "inputs": [
        {
          "internalType": "address",
          "name": "owner",
          "type": "address"
        }
      ],
      "name": "balanceOf",
      "outputs": [
        {
          "internalType": "uint256",
          "name": "",
          "type": "uint256"
        }
      ],
      "stateMutability": "view",
      "type": "function"
    },
    {
      "inputs": [
        {
          "internalType": "uint256",
          "name": "tokenId",
          "type": "uint256"
        }
      ],
      "name": "getApproved",
      "outputs": [
        {
          "internalType": "address",
          "name": "",
          "type": "address"
        }
      ],
      "stateMutability": "view",
      "type": "function"
    },
    {
      "inputs": [],
      "name": "getHighSVG",
      "outputs": [
        {
          "internalType": "string",
          "name": "",
          "type": "string"
        }
      ],
      "stateMutability": "view",
      "type": "function"
    },
    {
      "inputs": [],
      "name": "getLowSVG",
      "outputs": [
        {
          "internalType": "string",
          "name": "",
          "type": "string"
        }
      ],
      "stateMutability": "view",
      "type": "function"
    },
    {
      "inputs": [],
      "name": "getPriceFeed",
      "outputs": [
        {
          "internalType": "contract AggregatorV3Interface",
          "name": "",
          "type": "address"
        }
      ],
      "stateMutability": "view",
      "type": "function"
    },
    {
      "inputs": [],
      "name": "getTokenCounter",
      "outputs": [
        {
          "internalType": "uint256",
          "name": "",
          "type": "uint256"
        }
      ],
      "stateMutability": "view",
      "type": "function"
    },
    {
      "inputs": [
        {
          "internalType": "address",
          "name": "owner",
          "type": "address"
        },
        {
          "internalType": "address",
          "name": "operator",
          "type": "address"
        }
      ],
      "name": "isApprovedForAll",
      "outputs": [
        {
          "internalType": "bool",
          "name": "",
          "type": "bool"
        }
      ],
      "stateMutability": "view",
      "type": "function"
    },
    {
      "inputs": [
        {
          "internalType": "int256",
          "name": "highValue",
          "type": "int256"
        }
      ],
      "name": "mintNft",
      "outputs": [],
      "stateMutability": "nonpayable",
      "type": "function"
    },
    {
      "inputs": [],
      "name": "name",
      "outputs": [
        {
          "internalType": "string",
          "name": "",
          "type": "string"
        }
      ],
      "stateMutability": "view",
      "type": "function"
    },
    {
      "inputs": [],
      "name": "owner",
      "outputs": [
        {
          "internalType": "address",
          "name": "",
          "type": "address"
        }
      ],
      "stateMutability": "view",
      "type": "function"
    },
    {
      "inputs": [
        {
          "internalType": "uint256",
          "name": "tokenId",
          "type": "uint256"
        }
      ],
      "name": "ownerOf",
      "outputs": [
        {
          "internalType": "address",
          "name": "",
          "type": "address"
        }
      ],
      "stateMutability": "view",
      "type": "function"
    },
    {
      "inputs": [],
      "name": "renounceOwnership",
      "outputs": [],
      "stateMutability": "nonpayable",
      "type": "function"
    },
    {
      "inputs": [
        {
          "internalType": "address",
          "name": "from",
          "type": "address"
        },
        {
          "internalType": "address",
          "name": "to",
          "type": "address"
        },
        {
          "internalType": "uint256",
          "name": "tokenId",
          "type": "uint256"
        }
      ],
      "name": "safeTransferFrom",
      "outputs": [],
      "stateMutability": "nonpayable",
      "type": "function"
    },
    {
      "inputs": [
        {
          "internalType": "address",
          "name": "from",
          "type": "address"
        },
        {
          "internalType": "address",
          "name": "to",
          "type": "address"
        },
        {
          "internalType": "uint256",
          "name": "tokenId",
          "type": "uint256"
        },
        {
          "internalType": "bytes",
          "name": "data",
          "type": "bytes"
        }
      ],
      "name": "safeTransferFrom",
      "outputs": [],
      "stateMutability": "nonpayable",
      "type": "function"
    },
    {
      "inputs": [
        {
          "internalType": "address",
          "name": "operator",
          "type": "address"
        },
        {
          "internalType": "bool",
          "name": "approved",
          "type": "bool"
        }
      ],
      "name": "setApprovalForAll",
      "outputs": [],
      "stateMutability": "nonpayable",
      "type": "function"
    },
    {
      "inputs": [
        {
          "internalType": "bytes4",
          "name": "interfaceId",
          "type": "bytes4"
        }
      ],
      "name": "supportsInterface",
      "outputs": [
        {
          "internalType": "bool",
          "name": "",
          "type": "bool"
        }
      ],
      "stateMutability": "view",
      "type": "function"
    },
    {
      "inputs": [
        {
          "internalType": "string",
          "name": "svg",
          "type": "string"
        }
      ],
      "name": "svgToImageURI",
      "outputs": [
        {
          "internalType": "string",
          "name": "",
          "type": "string"
        }
      ],
      "stateMutability": "pure",
      "type": "function"
    },
    {
      "inputs": [],
      "name": "symbol",
      "outputs": [
        {
          "internalType": "string",
          "name": "",
          "type": "string"
        }
      ],
      "stateMutability": "view",
      "type": "function"
    },
    {
      "inputs": [
        {
          "internalType": "uint256",
          "name": "tokenId",
          "type": "uint256"
        }
      ],
      "name": "tokenURI",
      "outputs": [
        {
          "internalType": "string",
          "name": "",
          "type": "string"
        }
      ],
      "stateMutability": "view",
      "type": "function"
    },
    {
      "inputs": [
        {
          "internalType": "address",
          "name": "from",
          "type": "address"
        },
        {
          "internalType": "address",
          "name": "to",
          "type": "address"
        },
        {
          "internalType": "uint256",
          "name": "tokenId",
          "type": "uint256"
        }
      ],
      "name": "transferFrom",
      "outputs": [],
      "stateMutability": "nonpayable",
      "type": "function"
    },
    {
      "inputs": [
        {
          "internalType": "address",
          "name": "newOwner",
          "type": "address"
        }
      ],
      "name": "transferOwnership",
      "outputs": [],
      "stateMutability": "nonpayable",
      "type": "function"
    }
  ],
  "transactionHash": "0xa637f3515150c0741813d17699528519594125821a0aabe5d462dfffa330ab81",
  "args": [
    "0xD4a33860578De61DBAbDc8BFdb98FD742fA7028e",
    "<?xml version=\"1.0\" standalone=\"no\"?>\n<svg width=\"1024px\" height=\"1024px\" viewBox=\"0 0 1024 1024\" xmlns=\"http://www.w3.org/2000/svg\">\n  <path fill=\"#333\" d=\"M512 64C264.6 64 64 264.6 64 512s200.6 448 448 448 448-200.6 448-448S759.4 64 512 64zm0 820c-205.4 0-372-166.6-372-372s166.6-372 372-372 372 166.6 372 372-166.6 372-372 372z\"/>\n  <path fill=\"#E6E6E6\" d=\"M512 140c-205.4 0-372 166.6-372 372s166.6 372 372 372 372-166.6 372-372-166.6-372-372-372zM288 421a48.01 48.01 0 0 1 96 0 48.01 48.01 0 0 1-96 0zm376 272h-48.1c-4.2 0-7.8-3.2-8.1-7.4C604 636.1 562.5 597 512 597s-92.1 39.1-95.8 88.6c-.3 4.2-3.9 7.4-8.1 7.4H360a8 8 0 0 1-8-8.4c4.4-84.3 74.5-151.6 160-151.6s155.6 67.3 160 151.6a8 8 0 0 1-8 8.4zm24-224a48.01 48.01 0 0 1 0-96 48.01 48.01 0 0 1 0 96z\"/>\n  <path fill=\"#333\" d=\"M288 421a48 48 0 1 0 96 0 48 48 0 1 0-96 0zm224 112c-85.5 0-155.6 67.3-160 151.6a8 8 0 0 0 8 8.4h48.1c4.2 0 7.8-3.2 8.1-7.4 3.7-49.5 45.3-88.6 95.8-88.6s92 39.1 95.8 88.6c.3 4.2 3.9 7.4 8.1 7.4H664a8 8 0 0 0 8-8.4C667.6 600.3 597.5 533 512 533zm128-112a48 48 0 1 0 96 0 48 48 0 1 0-96 0z\"/>\n</svg>\n",
    "<svg viewBox=\"0 0 200 200\" width=\"400\"  height=\"400\" xmlns=\"http://www.w3.org/2000/svg\">\n  <circle cx=\"100\" cy=\"100\" fill=\"yellow\" r=\"78\" stroke=\"black\" stroke-width=\"3\"/>\n  <g class=\"eyes\">\n    <circle cx=\"61\" cy=\"82\" r=\"12\"/>\n    <circle cx=\"127\" cy=\"82\" r=\"12\"/>\n  </g>\n  <path d=\"m136.81 116.53c.69 26.17-64.11 42-81.52-.73\" style=\"fill:none; stroke: black; stroke-width: 3;\"/>\n</svg>"
  ],
  "numDeployments": 1,
  "solcInputHash": "00ff0a6b97926f56bce7e5f943a6610e",
  "bytecode": "0x60a06040523480156200001157600080fd5b5060405162003e3238038062003e3283398181016040528101906200003791906200073a565b6040518060400160405280600f81526020017f44594e414d494320535647204e465400000000000000000000000000000000008152506040518060400160405280600381526020017f44534e00000000000000000000000000000000000000000000000000000000008152508160009080519060200190620000bb92919062000488565b508060019080519060200190620000d492919062000488565b505050620000f7620000eb6200018e60201b60201c565b6200019660201b60201c565b600060078190555062000110826200025c60201b60201c565b600890805190602001906200012792919062000488565b5062000139816200025c60201b60201c565b600990805190602001906200015092919062000488565b508273ffffffffffffffffffffffffffffffffffffffff1660808173ffffffffffffffffffffffffffffffffffffffff168152505050505062000a25565b600033905090565b6000600660009054906101000a900473ffffffffffffffffffffffffffffffffffffffff16905081600660006101000a81548173ffffffffffffffffffffffffffffffffffffffff021916908373ffffffffffffffffffffffffffffffffffffffff1602179055508173ffffffffffffffffffffffffffffffffffffffff168173ffffffffffffffffffffffffffffffffffffffff167f8be0079c531659141344cd1fd0a4f28419497f9722a3daafe3b4186f6b6457e060405160405180910390a35050565b60606000620002978360405160200162000277919062000821565b604051602081830303815290604052620002fa60201b6200103a1760201c565b90506040518060400160405280601b81526020017f20646174613a696d6167652f7376672b786d6c3b6261736536342c000000000081525081604051602001620002e39291906200083a565b604051602081830303815290604052915050919050565b60606000825114156200031f5760405180602001604052806000815250905062000483565b600060405180606001604052806040815260200162003df260409139905060006003600285516200035191906200089b565b6200035d919062000927565b60046200036b91906200095f565b905060006020826200037e91906200089b565b67ffffffffffffffff8111156200039a5762000399620005cc565b5b6040519080825280601f01601f191660200182016040528015620003cd5781602001600182028036833780820191505090505b509050818152600183018586518101602084015b818310156200043e576003830192508251603f8160121c168501518253600182019150603f81600c1c168501518253600182019150603f8160061c168501518253600182019150603f8116850151825360018201915050620003e1565b6003895106600181146200045b57600281146200046c5762000477565b613d3d60f01b600283035262000477565b603d60f81b60018303525b50505050508093505050505b919050565b8280546200049690620009ef565b90600052602060002090601f016020900481019282620004ba576000855562000506565b82601f10620004d557805160ff191683800117855562000506565b8280016001018555821562000506579182015b8281111562000505578251825591602001919060010190620004e8565b5b50905062000515919062000519565b5090565b5b80821115620005345760008160009055506001016200051a565b5090565b6000604051905090565b600080fd5b600080fd5b600073ffffffffffffffffffffffffffffffffffffffff82169050919050565b600062000579826200054c565b9050919050565b6200058b816200056c565b81146200059757600080fd5b50565b600081519050620005ab8162000580565b92915050565b600080fd5b600080fd5b6000601f19601f8301169050919050565b7f4e487b7100000000000000000000000000000000000000000000000000000000600052604160045260246000fd5b6200060682620005bb565b810181811067ffffffffffffffff82111715620006285762000627620005cc565b5b80604052505050565b60006200063d62000538565b90506200064b8282620005fb565b919050565b600067ffffffffffffffff8211156200066e576200066d620005cc565b5b6200067982620005bb565b9050602081019050919050565b60005b83811015620006a657808201518184015260208101905062000689565b83811115620006b6576000848401525b50505050565b6000620006d3620006cd8462000650565b62000631565b905082815260208101848484011115620006f257620006f1620005b6565b5b620006ff84828562000686565b509392505050565b600082601f8301126200071f576200071e620005b1565b5b815162000731848260208601620006bc565b91505092915050565b60008060006060848603121562000756576200075562000542565b5b600062000766868287016200059a565b935050602084015167ffffffffffffffff8111156200078a576200078962000547565b5b620007988682870162000707565b925050604084015167ffffffffffffffff811115620007bc57620007bb62000547565b5b620007ca8682870162000707565b9150509250925092565b600081519050919050565b600081905092915050565b6000620007f782620007d4565b620008038185620007df565b93506200081581856020860162000686565b80840191505092915050565b60006200082f8284620007ea565b915081905092915050565b6000620008488285620007ea565b9150620008568284620007ea565b91508190509392505050565b6000819050919050565b7f4e487b7100000000000000000000000000000000000000000000000000000000600052601160045260246000fd5b6000620008a88262000862565b9150620008b58362000862565b9250827fffffffffffffffffffffffffffffffffffffffffffffffffffffffffffffffff03821115620008ed57620008ec6200086c565b5b828201905092915050565b7f4e487b7100000000000000000000000000000000000000000000000000000000600052601260045260246000fd5b6000620009348262000862565b9150620009418362000862565b925082620009545762000953620008f8565b5b828204905092915050565b60006200096c8262000862565b9150620009798362000862565b9250817fffffffffffffffffffffffffffffffffffffffffffffffffffffffffffffffff0483118215151615620009b557620009b46200086c565b5b828202905092915050565b7f4e487b7100000000000000000000000000000000000000000000000000000000600052602260045260246000fd5b6000600282049050600182168062000a0857607f821691505b6020821081141562000a1f5762000a1e620009c0565b5b50919050565b6080516133aa62000a4860003960008181610b6b0152610ce401526133aa6000f3fe608060405234801561001057600080fd5b50600436106101425760003560e01c8063715018a6116100b8578063a22cb4651161007c578063a22cb46514610365578063b88d4fde14610381578063c87b56dd1461039d578063e985e9c5146103cd578063ed28a122146103fd578063f2fde38b1461041b57610142565b8063715018a6146102e357806376f6056b146102ed5780638da5cb5b1461030b57806395d89b41146103295780639e87a5cd1461034757610142565b806323b872dd1161010a57806323b872dd146101fd57806330d871c61461021957806342842e0e146102495780636352211e146102655780636e02007d1461029557806370a08231146102b357610142565b806301ffc9a71461014757806306fdde0314610177578063081812fc14610195578063095ea7b3146101c55780631e930812146101e1575b600080fd5b610161600480360381019061015c9190611e5e565b610437565b60405161016e9190611ea6565b60405180910390f35b61017f610519565b60405161018c9190611f5a565b60405180910390f35b6101af60048036038101906101aa9190611fb2565b6105ab565b6040516101bc9190612020565b60405180910390f35b6101df60048036038101906101da9190612067565b6105f1565b005b6101fb60048036038101906101f691906120dd565b610709565b005b6102176004803603810190610212919061210a565b610784565b005b610233600480360381019061022e9190612292565b6107e4565b6040516102409190611f5a565b60405180910390f35b610263600480360381019061025e919061210a565b610871565b005b61027f600480360381019061027a9190611fb2565b610891565b60405161028c9190612020565b60405180910390f35b61029d610943565b6040516102aa91906122ea565b60405180910390f35b6102cd60048036038101906102c89190612305565b61094d565b6040516102da91906122ea565b60405180910390f35b6102eb610a05565b005b6102f5610a19565b6040516103029190611f5a565b60405180910390f35b610313610aab565b6040516103209190612020565b60405180910390f35b610331610ad5565b60405161033e9190611f5a565b60405180910390f35b61034f610b67565b60405161035c9190612391565b60405180910390f35b61037f600480360381019061037a91906123d8565b610b8f565b005b61039b600480360381019061039691906124b9565b610ba5565b005b6103b760048036038101906103b29190611fb2565b610c07565b6040516103c49190611f5a565b60405180910390f35b6103e760048036038101906103e2919061253c565b610e90565b6040516103f49190611ea6565b60405180910390f35b610405610f24565b6040516104129190611f5a565b60405180910390f35b61043560048036038101906104309190612305565b610fb6565b005b60007f80ac58cd000000000000000000000000000000000000000000000000000000007bffffffffffffffffffffffffffffffffffffffffffffffffffffffff1916827bffffffffffffffffffffffffffffffffffffffffffffffffffffffff1916148061050257507f5b5e139f000000000000000000000000000000000000000000000000000000007bffffffffffffffffffffffffffffffffffffffffffffffffffffffff1916827bffffffffffffffffffffffffffffffffffffffffffffffffffffffff1916145b806105125750610511826111b3565b5b9050919050565b606060008054610528906125ab565b80601f0160208091040260200160405190810160405280929190818152602001828054610554906125ab565b80156105a15780601f10610576576101008083540402835291602001916105a1565b820191906000526020600020905b81548152906001019060200180831161058457829003601f168201915b5050505050905090565b60006105b68261121d565b6004600083815260200190815260200160002060009054906101000a900473ffffffffffffffffffffffffffffffffffffffff169050919050565b60006105fc82610891565b90508073ffffffffffffffffffffffffffffffffffffffff168373ffffffffffffffffffffffffffffffffffffffff16141561066d576040517f08c379a00000000000000000000000000000000000000000000000000000000081526004016106649061264f565b60405180910390fd5b8073ffffffffffffffffffffffffffffffffffffffff1661068c611268565b73ffffffffffffffffffffffffffffffffffffffff1614806106bb57506106ba816106b5611268565b610e90565b5b6106fa576040517f08c379a00000000000000000000000000000000000000000000000000000000081526004016106f1906126e1565b60405180910390fd5b6107048383611270565b505050565b80600a60006007548152602001908152602001600020819055506007547f882d3b5a729a8bb95cf6c0083c99b42ecd9637123d4425bd7b768877fd8af8b0826040516107559190612710565b60405180910390a261076933600754611329565b6007600081548092919061077c9061275a565b919050555050565b61079561078f611268565b82611347565b6107d4576040517f08c379a00000000000000000000000000000000000000000000000000000000081526004016107cb90612815565b60405180910390fd5b6107df8383836113dc565b505050565b60606000610810836040516020016107fc9190612871565b60405160208183030381529060405261103a565b90506040518060400160405280601b81526020017f20646174613a696d6167652f7376672b786d6c3b6261736536342c00000000008152508160405160200161085a929190612888565b604051602081830303815290604052915050919050565b61088c83838360405180602001604052806000815250610ba5565b505050565b6000806002600084815260200190815260200160002060009054906101000a900473ffffffffffffffffffffffffffffffffffffffff169050600073ffffffffffffffffffffffffffffffffffffffff168173ffffffffffffffffffffffffffffffffffffffff16141561093a576040517f08c379a0000000000000000000000000000000000000000000000000000000008152600401610931906128f8565b60405180910390fd5b80915050919050565b6000600754905090565b60008073ffffffffffffffffffffffffffffffffffffffff168273ffffffffffffffffffffffffffffffffffffffff1614156109be576040517f08c379a00000000000000000000000000000000000000000000000000000000081526004016109b59061298a565b60405180910390fd5b600360008373ffffffffffffffffffffffffffffffffffffffff1673ffffffffffffffffffffffffffffffffffffffff168152602001908152602001600020549050919050565b610a0d611643565b610a1760006116c1565b565b606060098054610a28906125ab565b80601f0160208091040260200160405190810160405280929190818152602001828054610a54906125ab565b8015610aa15780601f10610a7657610100808354040283529160200191610aa1565b820191906000526020600020905b815481529060010190602001808311610a8457829003601f168201915b5050505050905090565b6000600660009054906101000a900473ffffffffffffffffffffffffffffffffffffffff16905090565b606060018054610ae4906125ab565b80601f0160208091040260200160405190810160405280929190818152602001828054610b10906125ab565b8015610b5d5780601f10610b3257610100808354040283529160200191610b5d565b820191906000526020600020905b815481529060010190602001808311610b4057829003601f168201915b5050505050905090565b60007f0000000000000000000000000000000000000000000000000000000000000000905090565b610ba1610b9a611268565b8383611787565b5050565b610bb6610bb0611268565b83611347565b610bf5576040517f08c379a0000000000000000000000000000000000000000000000000000000008152600401610bec90612815565b60405180910390fd5b610c01848484846118f4565b50505050565b6060610c1282611950565b610c51576040517f08c379a0000000000000000000000000000000000000000000000000000000008152600401610c48906129f6565b60405180910390fd5b600060088054610c60906125ab565b80601f0160208091040260200160405190810160405280929190818152602001828054610c8c906125ab565b8015610cd95780601f10610cae57610100808354040283529160200191610cd9565b820191906000526020600020905b815481529060010190602001808311610cbc57829003601f168201915b5050505050905060007f000000000000000000000000000000000000000000000000000000000000000073ffffffffffffffffffffffffffffffffffffffff1663feaf968c6040518163ffffffff1660e01b815260040160a06040518083038186803b158015610d4857600080fd5b505afa158015610d5c573d6000803e3d6000fd5b505050506040513d601f19601f82011682018060405250810190610d809190612a82565b505050915050600a6000858152602001908152602001600020548112610e2e5760098054610dad906125ab565b80601f0160208091040260200160405190810160405280929190818152602001828054610dd9906125ab565b8015610e265780601f10610dfb57610100808354040283529160200191610e26565b820191906000526020600020905b815481529060010190602001808311610e0957829003601f168201915b505050505091505b610e366119bc565b610e67610e41610519565b84604051602001610e53929190612cc5565b60405160208183030381529060405261103a565b604051602001610e78929190612888565b60405160208183030381529060405292505050919050565b6000600560008473ffffffffffffffffffffffffffffffffffffffff1673ffffffffffffffffffffffffffffffffffffffff16815260200190815260200160002060008373ffffffffffffffffffffffffffffffffffffffff1673ffffffffffffffffffffffffffffffffffffffff16815260200190815260200160002060009054906101000a900460ff16905092915050565b606060088054610f33906125ab565b80601f0160208091040260200160405190810160405280929190818152602001828054610f5f906125ab565b8015610fac5780601f10610f8157610100808354040283529160200191610fac565b820191906000526020600020905b815481529060010190602001808311610f8f57829003601f168201915b5050505050905090565b610fbe611643565b600073ffffffffffffffffffffffffffffffffffffffff168173ffffffffffffffffffffffffffffffffffffffff16141561102e576040517f08c379a000000000000000000000000000000000000000000000000000000000815260040161102590612d87565b60405180910390fd5b611037816116c1565b50565b606060008251141561105d576040518060200160405280600081525090506111ae565b6000604051806060016040528060408152602001613335604091399050600060036002855161108c9190612da7565b6110969190612e2c565b60046110a29190612e5d565b905060006020826110b39190612da7565b67ffffffffffffffff8111156110cc576110cb612167565b5b6040519080825280601f01601f1916602001820160405280156110fe5781602001600182028036833780820191505090505b509050818152600183018586518101602084015b8183101561116d576003830192508251603f8160121c168501518253600182019150603f81600c1c168501518253600182019150603f8160061c168501518253600182019150603f8116850151825360018201915050611112565b6003895106600181146111875760028114611197576111a2565b613d3d60f01b60028303526111a2565b603d60f81b60018303525b50505050508093505050505b919050565b60007f01ffc9a7000000000000000000000000000000000000000000000000000000007bffffffffffffffffffffffffffffffffffffffffffffffffffffffff1916827bffffffffffffffffffffffffffffffffffffffffffffffffffffffff1916149050919050565b61122681611950565b611265576040517f08c379a000000000000000000000000000000000000000000000000000000000815260040161125c906128f8565b60405180910390fd5b50565b600033905090565b816004600083815260200190815260200160002060006101000a81548173ffffffffffffffffffffffffffffffffffffffff021916908373ffffffffffffffffffffffffffffffffffffffff160217905550808273ffffffffffffffffffffffffffffffffffffffff166112e383610891565b73ffffffffffffffffffffffffffffffffffffffff167f8c5be1e5ebec7d5bd14f71427d1e84f3dd0314c0f7b2291e5b200ac8c7c3b92560405160405180910390a45050565b6113438282604051806020016040528060008152506119f9565b5050565b60008061135383610891565b90508073ffffffffffffffffffffffffffffffffffffffff168473ffffffffffffffffffffffffffffffffffffffff16148061139557506113948185610e90565b5b806113d357508373ffffffffffffffffffffffffffffffffffffffff166113bb846105ab565b73ffffffffffffffffffffffffffffffffffffffff16145b91505092915050565b8273ffffffffffffffffffffffffffffffffffffffff166113fc82610891565b73ffffffffffffffffffffffffffffffffffffffff1614611452576040517f08c379a000000000000000000000000000000000000000000000000000000000815260040161144990612f29565b60405180910390fd5b600073ffffffffffffffffffffffffffffffffffffffff168273ffffffffffffffffffffffffffffffffffffffff1614156114c2576040517f08c379a00000000000000000000000000000000000000000000000000000000081526004016114b990612fbb565b60405180910390fd5b6114cd838383611a54565b6114d8600082611270565b6001600360008573ffffffffffffffffffffffffffffffffffffffff1673ffffffffffffffffffffffffffffffffffffffff16815260200190815260200160002060008282546115289190612fdb565b925050819055506001600360008473ffffffffffffffffffffffffffffffffffffffff1673ffffffffffffffffffffffffffffffffffffffff168152602001908152602001600020600082825461157f9190612da7565b92505081905550816002600083815260200190815260200160002060006101000a81548173ffffffffffffffffffffffffffffffffffffffff021916908373ffffffffffffffffffffffffffffffffffffffff160217905550808273ffffffffffffffffffffffffffffffffffffffff168473ffffffffffffffffffffffffffffffffffffffff167fddf252ad1be2c89b69c2b068fc378daa952ba7f163c4a11628f55a4df523b3ef60405160405180910390a461163e838383611a59565b505050565b61164b611268565b73ffffffffffffffffffffffffffffffffffffffff16611669610aab565b73ffffffffffffffffffffffffffffffffffffffff16146116bf576040517f08c379a00000000000000000000000000000000000000000000000000000000081526004016116b69061305b565b60405180910390fd5b565b6000600660009054906101000a900473ffffffffffffffffffffffffffffffffffffffff16905081600660006101000a81548173ffffffffffffffffffffffffffffffffffffffff021916908373ffffffffffffffffffffffffffffffffffffffff1602179055508173ffffffffffffffffffffffffffffffffffffffff168173ffffffffffffffffffffffffffffffffffffffff167f8be0079c531659141344cd1fd0a4f28419497f9722a3daafe3b4186f6b6457e060405160405180910390a35050565b8173ffffffffffffffffffffffffffffffffffffffff168373ffffffffffffffffffffffffffffffffffffffff1614156117f6576040517f08c379a00000000000000000000000000000000000000000000000000000000081526004016117ed906130c7565b60405180910390fd5b80600560008573ffffffffffffffffffffffffffffffffffffffff1673ffffffffffffffffffffffffffffffffffffffff16815260200190815260200160002060008473ffffffffffffffffffffffffffffffffffffffff1673ffffffffffffffffffffffffffffffffffffffff16815260200190815260200160002060006101000a81548160ff0219169083151502179055508173ffffffffffffffffffffffffffffffffffffffff168373ffffffffffffffffffffffffffffffffffffffff167f17307eab39ab6107e8899845ad3d59bd9653f200f220920489ca2b5937696c31836040516118e79190611ea6565b60405180910390a3505050565b6118ff8484846113dc565b61190b84848484611a5e565b61194a576040517f08c379a000000000000000000000000000000000000000000000000000000000815260040161194190613159565b60405180910390fd5b50505050565b60008073ffffffffffffffffffffffffffffffffffffffff166002600084815260200190815260200160002060009054906101000a900473ffffffffffffffffffffffffffffffffffffffff1673ffffffffffffffffffffffffffffffffffffffff1614159050919050565b60606040518060400160405280601d81526020017f646174613a6170706c69636174696f6e2f6a736f6e3b6261736536342c000000815250905090565b611a038383611bf5565b611a106000848484611a5e565b611a4f576040517f08c379a0000000000000000000000000000000000000000000000000000000008152600401611a4690613159565b60405180910390fd5b505050565b505050565b505050565b6000611a7f8473ffffffffffffffffffffffffffffffffffffffff16611dcf565b15611be8578373ffffffffffffffffffffffffffffffffffffffff1663150b7a02611aa8611268565b8786866040518563ffffffff1660e01b8152600401611aca94939291906131ce565b602060405180830381600087803b158015611ae457600080fd5b505af1925050508015611b1557506040513d601f19601f82011682018060405250810190611b12919061322f565b60015b611b98573d8060008114611b45576040519150601f19603f3d011682016040523d82523d6000602084013e611b4a565b606091505b50600081511415611b90576040517f08c379a0000000000000000000000000000000000000000000000000000000008152600401611b8790613159565b60405180910390fd5b805181602001fd5b63150b7a0260e01b7bffffffffffffffffffffffffffffffffffffffffffffffffffffffff1916817bffffffffffffffffffffffffffffffffffffffffffffffffffffffff191614915050611bed565b600190505b949350505050565b600073ffffffffffffffffffffffffffffffffffffffff168273ffffffffffffffffffffffffffffffffffffffff161415611c65576040517f08c379a0000000000000000000000000000000000000000000000000000000008152600401611c5c906132a8565b60405180910390fd5b611c6e81611950565b15611cae576040517f08c379a0000000000000000000000000000000000000000000000000000000008152600401611ca590613314565b60405180910390fd5b611cba60008383611a54565b6001600360008473ffffffffffffffffffffffffffffffffffffffff1673ffffffffffffffffffffffffffffffffffffffff1681526020019081526020016000206000828254611d0a9190612da7565b92505081905550816002600083815260200190815260200160002060006101000a81548173ffffffffffffffffffffffffffffffffffffffff021916908373ffffffffffffffffffffffffffffffffffffffff160217905550808273ffffffffffffffffffffffffffffffffffffffff16600073ffffffffffffffffffffffffffffffffffffffff167fddf252ad1be2c89b69c2b068fc378daa952ba7f163c4a11628f55a4df523b3ef60405160405180910390a4611dcb60008383611a59565b5050565b6000808273ffffffffffffffffffffffffffffffffffffffff163b119050919050565b6000604051905090565b600080fd5b600080fd5b60007fffffffff0000000000000000000000000000000000000000000000000000000082169050919050565b611e3b81611e06565b8114611e4657600080fd5b50565b600081359050611e5881611e32565b92915050565b600060208284031215611e7457611e73611dfc565b5b6000611e8284828501611e49565b91505092915050565b60008115159050919050565b611ea081611e8b565b82525050565b6000602082019050611ebb6000830184611e97565b92915050565b600081519050919050565b600082825260208201905092915050565b60005b83811015611efb578082015181840152602081019050611ee0565b83811115611f0a576000848401525b50505050565b6000601f19601f8301169050919050565b6000611f2c82611ec1565b611f368185611ecc565b9350611f46818560208601611edd565b611f4f81611f10565b840191505092915050565b60006020820190508181036000830152611f748184611f21565b905092915050565b6000819050919050565b611f8f81611f7c565b8114611f9a57600080fd5b50565b600081359050611fac81611f86565b92915050565b600060208284031215611fc857611fc7611dfc565b5b6000611fd684828501611f9d565b91505092915050565b600073ffffffffffffffffffffffffffffffffffffffff82169050919050565b600061200a82611fdf565b9050919050565b61201a81611fff565b82525050565b60006020820190506120356000830184612011565b92915050565b61204481611fff565b811461204f57600080fd5b50565b6000813590506120618161203b565b92915050565b6000806040838503121561207e5761207d611dfc565b5b600061208c85828601612052565b925050602061209d85828601611f9d565b9150509250929050565b6000819050919050565b6120ba816120a7565b81146120c557600080fd5b50565b6000813590506120d7816120b1565b92915050565b6000602082840312156120f3576120f2611dfc565b5b6000612101848285016120c8565b91505092915050565b60008060006060848603121561212357612122611dfc565b5b600061213186828701612052565b935050602061214286828701612052565b925050604061215386828701611f9d565b9150509250925092565b600080fd5b600080fd5b7f4e487b7100000000000000000000000000000000000000000000000000000000600052604160045260246000fd5b61219f82611f10565b810181811067ffffffffffffffff821117156121be576121bd612167565b5b80604052505050565b60006121d1611df2565b90506121dd8282612196565b919050565b600067ffffffffffffffff8211156121fd576121fc612167565b5b61220682611f10565b9050602081019050919050565b82818337600083830152505050565b6000612235612230846121e2565b6121c7565b90508281526020810184848401111561225157612250612162565b5b61225c848285612213565b509392505050565b600082601f8301126122795761227861215d565b5b8135612289848260208601612222565b91505092915050565b6000602082840312156122a8576122a7611dfc565b5b600082013567ffffffffffffffff8111156122c6576122c5611e01565b5b6122d284828501612264565b91505092915050565b6122e481611f7c565b82525050565b60006020820190506122ff60008301846122db565b92915050565b60006020828403121561231b5761231a611dfc565b5b600061232984828501612052565b91505092915050565b6000819050919050565b600061235761235261234d84611fdf565b612332565b611fdf565b9050919050565b60006123698261233c565b9050919050565b600061237b8261235e565b9050919050565b61238b81612370565b82525050565b60006020820190506123a66000830184612382565b92915050565b6123b581611e8b565b81146123c057600080fd5b50565b6000813590506123d2816123ac565b92915050565b600080604083850312156123ef576123ee611dfc565b5b60006123fd85828601612052565b925050602061240e858286016123c3565b9150509250929050565b600067ffffffffffffffff82111561243357612432612167565b5b61243c82611f10565b9050602081019050919050565b600061245c61245784612418565b6121c7565b90508281526020810184848401111561247857612477612162565b5b612483848285612213565b509392505050565b600082601f8301126124a05761249f61215d565b5b81356124b0848260208601612449565b91505092915050565b600080600080608085870312156124d3576124d2611dfc565b5b60006124e187828801612052565b94505060206124f287828801612052565b935050604061250387828801611f9d565b925050606085013567ffffffffffffffff81111561252457612523611e01565b5b6125308782880161248b565b91505092959194509250565b6000806040838503121561255357612552611dfc565b5b600061256185828601612052565b925050602061257285828601612052565b9150509250929050565b7f4e487b7100000000000000000000000000000000000000000000000000000000600052602260045260246000fd5b600060028204905060018216806125c357607f821691505b602082108114156125d7576125d661257c565b5b50919050565b7f4552433732313a20617070726f76616c20746f2063757272656e74206f776e6560008201527f7200000000000000000000000000000000000000000000000000000000000000602082015250565b6000612639602183611ecc565b9150612644826125dd565b604082019050919050565b600060208201905081810360008301526126688161262c565b9050919050565b7f4552433732313a20617070726f76652063616c6c6572206973206e6f7420746f60008201527f6b656e206f776e6572206e6f7220617070726f76656420666f7220616c6c0000602082015250565b60006126cb603e83611ecc565b91506126d68261266f565b604082019050919050565b600060208201905081810360008301526126fa816126be565b9050919050565b61270a816120a7565b82525050565b60006020820190506127256000830184612701565b92915050565b7f4e487b7100000000000000000000000000000000000000000000000000000000600052601160045260246000fd5b600061276582611f7c565b91507fffffffffffffffffffffffffffffffffffffffffffffffffffffffffffffffff8214156127985761279761272b565b5b600182019050919050565b7f4552433732313a2063616c6c6572206973206e6f7420746f6b656e206f776e6560008201527f72206e6f7220617070726f766564000000000000000000000000000000000000602082015250565b60006127ff602e83611ecc565b915061280a826127a3565b604082019050919050565b6000602082019050818103600083015261282e816127f2565b9050919050565b600081905092915050565b600061284b82611ec1565b6128558185612835565b9350612865818560208601611edd565b80840191505092915050565b600061287d8284612840565b915081905092915050565b60006128948285612840565b91506128a08284612840565b91508190509392505050565b7f4552433732313a20696e76616c696420746f6b656e2049440000000000000000600082015250565b60006128e2601883611ecc565b91506128ed826128ac565b602082019050919050565b60006020820190508181036000830152612911816128d5565b9050919050565b7f4552433732313a2061646472657373207a65726f206973206e6f74206120766160008201527f6c6964206f776e65720000000000000000000000000000000000000000000000602082015250565b6000612974602983611ecc565b915061297f82612918565b604082019050919050565b600060208201905081810360008301526129a381612967565b9050919050565b7f55524920517565727920666f72206e6f6e6578697374656e7420746f6b656e00600082015250565b60006129e0601f83611ecc565b91506129eb826129aa565b602082019050919050565b60006020820190508181036000830152612a0f816129d3565b9050919050565b600069ffffffffffffffffffff82169050919050565b612a3581612a16565b8114612a4057600080fd5b50565b600081519050612a5281612a2c565b92915050565b600081519050612a67816120b1565b92915050565b600081519050612a7c81611f86565b92915050565b600080600080600060a08688031215612a9e57612a9d611dfc565b5b6000612aac88828901612a43565b9550506020612abd88828901612a58565b9450506040612ace88828901612a6d565b9350506060612adf88828901612a6d565b9250506080612af088828901612a43565b9150509295509295909350565b7f7b226e616d65223a220000000000000000000000000000000000000000000000600082015250565b6000612b33600983612835565b9150612b3e82612afd565b600982019050919050565b7f222c20226465736372697074696f6e223a22416e204e4654207468617420636860008201527f616e676573206261736564206f6e2074686520436861696e6c696e6b2046656560208201527f64222c2000000000000000000000000000000000000000000000000000000000604082015250565b6000612bcb604483612835565b9150612bd682612b49565b604482019050919050565b7f2261747472696275746573223a205b7b2274726169745f74797065223a20226360008201527f6f6f6c6e657373222c202276616c7565223a203130307d5d2c2022696d61676560208201527f223a220000000000000000000000000000000000000000000000000000000000604082015250565b6000612c63604383612835565b9150612c6e82612be1565b604382019050919050565b7f227d000000000000000000000000000000000000000000000000000000000000600082015250565b6000612caf600283612835565b9150612cba82612c79565b600282019050919050565b6000612cd082612b26565b9150612cdc8285612840565b9150612ce782612bbe565b9150612cf282612c56565b9150612cfe8284612840565b9150612d0982612ca2565b91508190509392505050565b7f4f776e61626c653a206e6577206f776e657220697320746865207a65726f206160008201527f6464726573730000000000000000000000000000000000000000000000000000602082015250565b6000612d71602683611ecc565b9150612d7c82612d15565b604082019050919050565b60006020820190508181036000830152612da081612d64565b9050919050565b6000612db282611f7c565b9150612dbd83611f7c565b9250827fffffffffffffffffffffffffffffffffffffffffffffffffffffffffffffffff03821115612df257612df161272b565b5b828201905092915050565b7f4e487b7100000000000000000000000000000000000000000000000000000000600052601260045260246000fd5b6000612e3782611f7c565b9150612e4283611f7c565b925082612e5257612e51612dfd565b5b828204905092915050565b6000612e6882611f7c565b9150612e7383611f7c565b9250817fffffffffffffffffffffffffffffffffffffffffffffffffffffffffffffffff0483118215151615612eac57612eab61272b565b5b828202905092915050565b7f4552433732313a207472616e736665722066726f6d20696e636f72726563742060008201527f6f776e6572000000000000000000000000000000000000000000000000000000602082015250565b6000612f13602583611ecc565b9150612f1e82612eb7565b604082019050919050565b60006020820190508181036000830152612f4281612f06565b9050919050565b7f4552433732313a207472616e7366657220746f20746865207a65726f2061646460008201527f7265737300000000000000000000000000000000000000000000000000000000602082015250565b6000612fa5602483611ecc565b9150612fb082612f49565b604082019050919050565b60006020820190508181036000830152612fd481612f98565b9050919050565b6000612fe682611f7c565b9150612ff183611f7c565b9250828210156130045761300361272b565b5b828203905092915050565b7f4f776e61626c653a2063616c6c6572206973206e6f7420746865206f776e6572600082015250565b6000613045602083611ecc565b91506130508261300f565b602082019050919050565b6000602082019050818103600083015261307481613038565b9050919050565b7f4552433732313a20617070726f766520746f2063616c6c657200000000000000600082015250565b60006130b1601983611ecc565b91506130bc8261307b565b602082019050919050565b600060208201905081810360008301526130e0816130a4565b9050919050565b7f4552433732313a207472616e7366657220746f206e6f6e20455243373231526560008201527f63656976657220696d706c656d656e7465720000000000000000000000000000602082015250565b6000613143603283611ecc565b915061314e826130e7565b604082019050919050565b6000602082019050818103600083015261317281613136565b9050919050565b600081519050919050565b600082825260208201905092915050565b60006131a082613179565b6131aa8185613184565b93506131ba818560208601611edd565b6131c381611f10565b840191505092915050565b60006080820190506131e36000830187612011565b6131f06020830186612011565b6131fd60408301856122db565b818103606083015261320f8184613195565b905095945050505050565b60008151905061322981611e32565b92915050565b60006020828403121561324557613244611dfc565b5b60006132538482850161321a565b91505092915050565b7f4552433732313a206d696e7420746f20746865207a65726f2061646472657373600082015250565b6000613292602083611ecc565b915061329d8261325c565b602082019050919050565b600060208201905081810360008301526132c181613285565b9050919050565b7f4552433732313a20746f6b656e20616c7265616479206d696e74656400000000600082015250565b60006132fe601c83611ecc565b9150613309826132c8565b602082019050919050565b6000602082019050818103600083015261332d816132f1565b905091905056fe4142434445464748494a4b4c4d4e4f505152535455565758595a6162636465666768696a6b6c6d6e6f707172737475767778797a303132333435363738392b2fa2646970667358221220e4eefe6522994f1644b2eb741aae84f985fd9cfdedbd03b9087ef8eb153421db64736f6c634300080900334142434445464748494a4b4c4d4e4f505152535455565758595a6162636465666768696a6b6c6d6e6f707172737475767778797a303132333435363738392b2f",
  "devdoc": {
    "kind": "dev",
    "methods": {
      "approve(address,uint256)": {
        "details": "See {IERC721-approve}."
      },
      "balanceOf(address)": {
        "details": "See {IERC721-balanceOf}."
      },
      "getApproved(uint256)": {
        "details": "See {IERC721-getApproved}."
      },
      "isApprovedForAll(address,address)": {
        "details": "See {IERC721-isApprovedForAll}."
      },
      "name()": {
        "details": "See {IERC721Metadata-name}."
      },
      "owner()": {
        "details": "Returns the address of the current owner."
      },
      "ownerOf(uint256)": {
        "details": "See {IERC721-ownerOf}."
      },
      "renounceOwnership()": {
        "details": "Leaves the contract without owner. It will not be possible to call `onlyOwner` functions anymore. Can only be called by the current owner. NOTE: Renouncing ownership will leave the contract without an owner, thereby removing any functionality that is only available to the owner."
      },
      "safeTransferFrom(address,address,uint256)": {
        "details": "See {IERC721-safeTransferFrom}."
      },
      "safeTransferFrom(address,address,uint256,bytes)": {
        "details": "See {IERC721-safeTransferFrom}."
      },
      "setApprovalForAll(address,bool)": {
        "details": "See {IERC721-setApprovalForAll}."
      },
      "supportsInterface(bytes4)": {
        "details": "See {IERC165-supportsInterface}."
      },
      "symbol()": {
        "details": "See {IERC721Metadata-symbol}."
      },
      "tokenURI(uint256)": {
        "details": "See {IERC721Metadata-tokenURI}."
      },
      "transferFrom(address,address,uint256)": {
        "details": "See {IERC721-transferFrom}."
      },
      "transferOwnership(address)": {
        "details": "Transfers ownership of the contract to a new account (`newOwner`). Can only be called by the current owner."
      }
    },
    "version": 1
  },
  "userdoc": {
    "kind": "user",
    "methods": {},
    "version": 1
  },
  "storageLayout": {
    "storage": [
      {
        "astId": 1005,
        "contract": "contracts/DynamicSvgNft.sol:DynamicSvgNft",
        "label": "_name",
        "offset": 0,
        "slot": "0",
        "type": "t_string_storage"
      },
      {
        "astId": 1007,
        "contract": "contracts/DynamicSvgNft.sol:DynamicSvgNft",
        "label": "_symbol",
        "offset": 0,
        "slot": "1",
        "type": "t_string_storage"
      },
      {
        "astId": 1011,
        "contract": "contracts/DynamicSvgNft.sol:DynamicSvgNft",
        "label": "_owners",
        "offset": 0,
        "slot": "2",
        "type": "t_mapping(t_uint256,t_address)"
      },
      {
        "astId": 1015,
        "contract": "contracts/DynamicSvgNft.sol:DynamicSvgNft",
        "label": "_balances",
        "offset": 0,
        "slot": "3",
        "type": "t_mapping(t_address,t_uint256)"
      },
      {
        "astId": 1019,
        "contract": "contracts/DynamicSvgNft.sol:DynamicSvgNft",
        "label": "_tokenApprovals",
        "offset": 0,
        "slot": "4",
        "type": "t_mapping(t_uint256,t_address)"
      },
      {
        "astId": 1025,
        "contract": "contracts/DynamicSvgNft.sol:DynamicSvgNft",
        "label": "_operatorApprovals",
        "offset": 0,
        "slot": "5",
        "type": "t_mapping(t_address,t_mapping(t_address,t_bool))"
      },
      {
        "astId": 874,
        "contract": "contracts/DynamicSvgNft.sol:DynamicSvgNft",
        "label": "_owner",
        "offset": 0,
        "slot": "6",
        "type": "t_address"
      },
      {
        "astId": 2900,
        "contract": "contracts/DynamicSvgNft.sol:DynamicSvgNft",
        "label": "s_tokenCounter",
        "offset": 0,
        "slot": "7",
        "type": "t_uint256"
      },
      {
        "astId": 2902,
        "contract": "contracts/DynamicSvgNft.sol:DynamicSvgNft",
        "label": "s_lowImageURI",
        "offset": 0,
        "slot": "8",
        "type": "t_string_storage"
      },
      {
        "astId": 2904,
        "contract": "contracts/DynamicSvgNft.sol:DynamicSvgNft",
        "label": "s_highImageURI",
        "offset": 0,
        "slot": "9",
        "type": "t_string_storage"
      },
      {
        "astId": 2914,
        "contract": "contracts/DynamicSvgNft.sol:DynamicSvgNft",
        "label": "s_tokenIdToHighValues",
        "offset": 0,
        "slot": "10",
        "type": "t_mapping(t_uint256,t_int256)"
      }
    ],
    "types": {
      "t_address": {
        "encoding": "inplace",
        "label": "address",
        "numberOfBytes": "20"
      },
      "t_bool": {
        "encoding": "inplace",
        "label": "bool",
        "numberOfBytes": "1"
      },
      "t_int256": {
        "encoding": "inplace",
        "label": "int256",
        "numberOfBytes": "32"
      },
      "t_mapping(t_address,t_bool)": {
        "encoding": "mapping",
        "key": "t_address",
        "label": "mapping(address => bool)",
        "numberOfBytes": "32",
        "value": "t_bool"
      },
      "t_mapping(t_address,t_mapping(t_address,t_bool))": {
        "encoding": "mapping",
        "key": "t_address",
        "label": "mapping(address => mapping(address => bool))",
        "numberOfBytes": "32",
        "value": "t_mapping(t_address,t_bool)"
      },
      "t_mapping(t_address,t_uint256)": {
        "encoding": "mapping",
        "key": "t_address",
        "label": "mapping(address => uint256)",
        "numberOfBytes": "32",
        "value": "t_uint256"
      },
      "t_mapping(t_uint256,t_address)": {
        "encoding": "mapping",
        "key": "t_uint256",
        "label": "mapping(uint256 => address)",
        "numberOfBytes": "32",
        "value": "t_address"
      },
      "t_mapping(t_uint256,t_int256)": {
        "encoding": "mapping",
        "key": "t_uint256",
        "label": "mapping(uint256 => int256)",
        "numberOfBytes": "32",
        "value": "t_int256"
      },
      "t_string_storage": {
        "encoding": "bytes",
        "label": "string",
        "numberOfBytes": "32"
      },
      "t_uint256": {
        "encoding": "inplace",
        "label": "uint256",
        "numberOfBytes": "32"
      }
    }
  }
}