{
  "address": "0xAFF44e8702AF2C6cA2f4cBF95bF16c7ECD1491D2",
  "abi": [
    {
      "inputs": [
        {
          "internalType": "address",
          "name": "vrfCoodinatorV2",
          "type": "address"
        },
        {
          "internalType": "uint64",
          "name": "subscriptionId",
          "type": "uint64"
        },
        {
          "internalType": "bytes32",
          "name": "gasLane",
          "type": "bytes32"
        },
        {
          "internalType": "uint32",
          "name": "callbackGasLimit",
          "type": "uint32"
        },
        {
          "internalType": "string[3]",
          "name": "dogTokenUris",
          "type": "string[3]"
        },
        {
          "internalType": "uint256",
          "name": "mintFee",
          "type": "uint256"
        }
      ],
      "stateMutability": "nonpayable",
      "type": "constructor"
    },
    {
      "inputs": [
        {
          "internalType": "address",
          "name": "have",
          "type": "address"
        },
        {
          "internalType": "address",
          "name": "want",
          "type": "address"
        }
      ],
      "name": "OnlyCoordinatorCanFulfill",
      "type": "error"
    },
    {
      "inputs": [],
      "name": "RandomIpfsNft__AlreadyInitialized",
      "type": "error"
    },
    {
      "inputs": [],
      "name": "RandomIpfsNft__NeedMoreEthSent",
      "type": "error"
    },
    {
      "inputs": [],
      "name": "RandomIpfsNft__RangeOufOfBound",
      "type": "error"
    },
    {
      "inputs": [],
      "name": "RandomIpfsNft__TransferFailed",
      "type": "error"
    },
    {
      "anonymous": false,
      "inputs": [
        {
          "indexed": true,
          "internalType": "address",
          "name": "owner",
          "type": "address"
        },
        {
          "indexed": true,
          "internalType": "address",
          "name": "approved",
          "type": "address"
        },
        {
          "indexed": true,
          "internalType": "uint256",
          "name": "tokenId",
          "type": "uint256"
        }
      ],
      "name": "Approval",
      "type": "event"
    },
    {
      "anonymous": false,
      "inputs": [
        {
          "indexed": true,
          "internalType": "address",
          "name": "owner",
          "type": "address"
        },
        {
          "indexed": true,
          "internalType": "address",
          "name": "operator",
          "type": "address"
        },
        {
          "indexed": false,
          "internalType": "bool",
          "name": "approved",
          "type": "bool"
        }
      ],
      "name": "ApprovalForAll",
      "type": "event"
    },
    {
      "anonymous": false,
      "inputs": [
        {
          "indexed": false,
          "internalType": "enum RandomIpfsNft.Breed",
          "name": "dogBreed",
          "type": "uint8"
        },
        {
          "indexed": false,
          "internalType": "address",
          "name": "minter",
          "type": "address"
        }
      ],
      "name": "NftMinted",
      "type": "event"
    },
    {
      "anonymous": false,
      "inputs": [
        {
          "indexed": true,
          "internalType": "uint256",
          "name": "requestId",
          "type": "uint256"
        },
        {
          "indexed": false,
          "internalType": "address",
          "name": "requester",
          "type": "address"
        }
      ],
      "name": "NftRequested",
      "type": "event"
    },
    {
      "anonymous": false,
      "inputs": [
        {
          "indexed": true,
          "internalType": "address",
          "name": "previousOwner",
          "type": "address"
        },
        {
          "indexed": true,
          "internalType": "address",
          "name": "newOwner",
          "type": "address"
        }
      ],
      "name": "OwnershipTransferred",
      "type": "event"
    },
    {
      "anonymous": false,
      "inputs": [
        {
          "indexed": true,
          "internalType": "address",
          "name": "from",
          "type": "address"
        },
        {
          "indexed": true,
          "internalType": "address",
          "name": "to",
          "type": "address"
        },
        {
          "indexed": true,
          "internalType": "uint256",
          "name": "tokenId",
          "type": "uint256"
        }
      ],
      "name": "Transfer",
      "type": "event"
    },
    {
      "inputs": [
        {
          "internalType": "address",
          "name": "to",
          "type": "address"
        },
        {
          "internalType": "uint256",
          "name": "tokenId",
          "type": "uint256"
        }
      ],
      "name": "approve",
      "outputs": [],
      "stateMutability": "nonpayable",
      "type": "function"
    },
    {
      "inputs": [
        {
          "internalType": "address",
          "name": "owner",
          "type": "address"
        }
      ],
      "name": "balanceOf",
      "outputs": [
        {
          "internalType": "uint256",
          "name": "",
          "type": "uint256"
        }
      ],
      "stateMutability": "view",
      "type": "function"
    },
    {
      "inputs": [
        {
          "internalType": "uint256",
          "name": "tokenId",
          "type": "uint256"
        }
      ],
      "name": "getApproved",
      "outputs": [
        {
          "internalType": "address",
          "name": "",
          "type": "address"
        }
      ],
      "stateMutability": "view",
      "type": "function"
    },
    {
      "inputs": [
        {
          "internalType": "uint256",
          "name": "moddedRng",
          "type": "uint256"
        }
      ],
      "name": "getBreedFromModdedRng",
      "outputs": [
        {
          "internalType": "enum RandomIpfsNft.Breed",
          "name": "",
          "type": "uint8"
        }
      ],
      "stateMutability": "pure",
      "type": "function"
    },
    {
      "inputs": [],
      "name": "getChanceArray",
      "outputs": [
        {
          "internalType": "uint256[3]",
          "name": "",
          "type": "uint256[3]"
        }
      ],
      "stateMutability": "pure",
      "type": "function"
    },
    {
      "inputs": [
        {
          "internalType": "uint256",
          "name": "index",
          "type": "uint256"
        }
      ],
      "name": "getDogTokenUris",
      "outputs": [
        {
          "internalType": "string",
          "name": "",
          "type": "string"
        }
      ],
      "stateMutability": "view",
      "type": "function"
    },
    {
      "inputs": [],
      "name": "getInitialized",
      "outputs": [
        {
          "internalType": "bool",
          "name": "",
          "type": "bool"
        }
      ],
      "stateMutability": "view",
      "type": "function"
    },
    {
      "inputs": [],
      "name": "getMintFee",
      "outputs": [
        {
          "internalType": "uint256",
          "name": "",
          "type": "uint256"
        }
      ],
      "stateMutability": "view",
      "type": "function"
    },
    {
      "inputs": [],
      "name": "getTokenCounter",
      "outputs": [
        {
          "internalType": "uint256",
          "name": "",
          "type": "uint256"
        }
      ],
      "stateMutability": "view",
      "type": "function"
    },
    {
      "inputs": [
        {
          "internalType": "address",
          "name": "owner",
          "type": "address"
        },
        {
          "internalType": "address",
          "name": "operator",
          "type": "address"
        }
      ],
      "name": "isApprovedForAll",
      "outputs": [
        {
          "internalType": "bool",
          "name": "",
          "type": "bool"
        }
      ],
      "stateMutability": "view",
      "type": "function"
    },
    {
      "inputs": [],
      "name": "name",
      "outputs": [
        {
          "internalType": "string",
          "name": "",
          "type": "string"
        }
      ],
      "stateMutability": "view",
      "type": "function"
    },
    {
      "inputs": [],
      "name": "owner",
      "outputs": [
        {
          "internalType": "address",
          "name": "",
          "type": "address"
        }
      ],
      "stateMutability": "view",
      "type": "function"
    },
    {
      "inputs": [
        {
          "internalType": "uint256",
          "name": "tokenId",
          "type": "uint256"
        }
      ],
      "name": "ownerOf",
      "outputs": [
        {
          "internalType": "address",
          "name": "",
          "type": "address"
        }
      ],
      "stateMutability": "view",
      "type": "function"
    },
    {
      "inputs": [
        {
          "internalType": "uint256",
          "name": "requestId",
          "type": "uint256"
        },
        {
          "internalType": "uint256[]",
          "name": "randomWords",
          "type": "uint256[]"
        }
      ],
      "name": "rawFulfillRandomWords",
      "outputs": [],
      "stateMutability": "nonpayable",
      "type": "function"
    },
    {
      "inputs": [],
      "name": "renounceOwnership",
      "outputs": [],
      "stateMutability": "nonpayable",
      "type": "function"
    },
    {
      "inputs": [],
      "name": "requestNft",
      "outputs": [
        {
          "internalType": "uint256",
          "name": "requestId",
          "type": "uint256"
        }
      ],
      "stateMutability": "payable",
      "type": "function"
    },
    {
      "inputs": [
        {
          "internalType": "uint256",
          "name": "",
          "type": "uint256"
        }
      ],
      "name": "s_requestIdToSender",
      "outputs": [
        {
          "internalType": "address",
          "name": "",
          "type": "address"
        }
      ],
      "stateMutability": "view",
      "type": "function"
    },
    {
      "inputs": [],
      "name": "s_tokenCounter",
      "outputs": [
        {
          "internalType": "uint256",
          "name": "",
          "type": "uint256"
        }
      ],
      "stateMutability": "view",
      "type": "function"
    },
    {
      "inputs": [
        {
          "internalType": "address",
          "name": "from",
          "type": "address"
        },
        {
          "internalType": "address",
          "name": "to",
          "type": "address"
        },
        {
          "internalType": "uint256",
          "name": "tokenId",
          "type": "uint256"
        }
      ],
      "name": "safeTransferFrom",
      "outputs": [],
      "stateMutability": "nonpayable",
      "type": "function"
    },
    {
      "inputs": [
        {
          "internalType": "address",
          "name": "from",
          "type": "address"
        },
        {
          "internalType": "address",
          "name": "to",
          "type": "address"
        },
        {
          "internalType": "uint256",
          "name": "tokenId",
          "type": "uint256"
        },
        {
          "internalType": "bytes",
          "name": "data",
          "type": "bytes"
        }
      ],
      "name": "safeTransferFrom",
      "outputs": [],
      "stateMutability": "nonpayable",
      "type": "function"
    },
    {
      "inputs": [
        {
          "internalType": "address",
          "name": "operator",
          "type": "address"
        },
        {
          "internalType": "bool",
          "name": "approved",
          "type": "bool"
        }
      ],
      "name": "setApprovalForAll",
      "outputs": [],
      "stateMutability": "nonpayable",
      "type": "function"
    },
    {
      "inputs": [
        {
          "internalType": "bytes4",
          "name": "interfaceId",
          "type": "bytes4"
        }
      ],
      "name": "supportsInterface",
      "outputs": [
        {
          "internalType": "bool",
          "name": "",
          "type": "bool"
        }
      ],
      "stateMutability": "view",
      "type": "function"
    },
    {
      "inputs": [],
      "name": "symbol",
      "outputs": [
        {
          "internalType": "string",
          "name": "",
          "type": "string"
        }
      ],
      "stateMutability": "view",
      "type": "function"
    },
    {
      "inputs": [
        {
          "internalType": "uint256",
          "name": "tokenId",
          "type": "uint256"
        }
      ],
      "name": "tokenURI",
      "outputs": [
        {
          "internalType": "string",
          "name": "",
          "type": "string"
        }
      ],
      "stateMutability": "view",
      "type": "function"
    },
    {
      "inputs": [
        {
          "internalType": "address",
          "name": "from",
          "type": "address"
        },
        {
          "internalType": "address",
          "name": "to",
          "type": "address"
        },
        {
          "internalType": "uint256",
          "name": "tokenId",
          "type": "uint256"
        }
      ],
      "name": "transferFrom",
      "outputs": [],
      "stateMutability": "nonpayable",
      "type": "function"
    },
    {
      "inputs": [
        {
          "internalType": "address",
          "name": "newOwner",
          "type": "address"
        }
      ],
      "name": "transferOwnership",
      "outputs": [],
      "stateMutability": "nonpayable",
      "type": "function"
    },
    {
      "inputs": [],
      "name": "withdraw",
      "outputs": [],
      "stateMutability": "nonpayable",
      "type": "function"
    }
  ],
  "transactionHash": "0x57676f29dc27108afbe16e34885b70c554ede78c39baac33b487df1906e9bc29",
  "args": [
    "0x2Ca8E0C643bDe4C2E08ab1fA0da3401AdAD7734D",
    "772",
    "0x79d3d8832d904592c0bf9818b621522c988bb8b0c05cdc3b15aea1b6e8db0c15",
    "2500000",
    [
      "ipfs://QmRuXbzL4iaqwioHKudpRuFZZqbEDpRjPNeBeSfzNrGVpy",
      "ipfs://QmTm3UYPJvgSi9mSM6yRYEfWtzHwB3tdojUn51coXYFMyr",
      "ipfs://QmP5sb8eHBwhXdRe8EKLm835QPunaDyUGcZ9mGKD7ACpgH"
    ],
    "10000000000000000"
  ],
  "numDeployments": 1,
  "solcInputHash": "db94b714c2fcb255c734da79afb30f36",
  "bytecode": "0x6101206040523480156200001257600080fd5b506040516200439938038062004399833981810160405281019062000038919062000888565b6040518060400160405280600f81526020017f52616e646f6d2049504653204e465400000000000000000000000000000000008152506040518060400160405280600381526020017f52494e0000000000000000000000000000000000000000000000000000000000815250878073ffffffffffffffffffffffffffffffffffffffff1660808173ffffffffffffffffffffffffffffffffffffffff1681525050508160009080519060200190620000f29291906200031b565b5080600190805190602001906200010b9291906200031b565b5050506200012e62000122620001d360201b60201c565b620001db60201b60201c565b8573ffffffffffffffffffffffffffffffffffffffff1660a08173ffffffffffffffffffffffffffffffffffffffff16815250508467ffffffffffffffff1660c08167ffffffffffffffff16815250508360e081815250508263ffffffff166101008163ffffffff168152505081600a906003620001ae929190620003ac565b5080600b81905550620001c782620002a160201b60201c565b505050505050620009a8565b600033905090565b6000600760009054906101000a900473ffffffffffffffffffffffffffffffffffffffff16905081600760006101000a81548173ffffffffffffffffffffffffffffffffffffffff021916908373ffffffffffffffffffffffffffffffffffffffff1602179055508173ffffffffffffffffffffffffffffffffffffffff168173ffffffffffffffffffffffffffffffffffffffff167f8be0079c531659141344cd1fd0a4f28419497f9722a3daafe3b4186f6b6457e060405160405180910390a35050565b600c60009054906101000a900460ff1615620002e9576040517fddf8bf7000000000000000000000000000000000000000000000000000000000815260040160405180910390fd5b80600a906003620002fc929190620003ac565b506001600c60006101000a81548160ff02191690831515021790555050565b828054620003299062000972565b90600052602060002090601f0160209004810192826200034d576000855562000399565b82601f106200036857805160ff191683800117855562000399565b8280016001018555821562000399579182015b82811115620003985782518255916020019190600101906200037b565b5b509050620003a8919062000413565b5090565b82805482825590600052602060002090810192821562000400579160200282015b82811115620003ff578251829080519060200190620003ee9291906200031b565b5091602001919060010190620003cd565b5b5090506200040f919062000432565b5090565b5b808211156200042e57600081600090555060010162000414565b5090565b5b808211156200045657600081816200044c91906200045a565b5060010162000433565b5090565b508054620004689062000972565b6000825580601f106200047c57506200049d565b601f0160209004906000526020600020908101906200049c919062000413565b5b50565b6000604051905090565b600080fd5b600080fd5b600073ffffffffffffffffffffffffffffffffffffffff82169050919050565b6000620004e182620004b4565b9050919050565b620004f381620004d4565b8114620004ff57600080fd5b50565b6000815190506200051381620004e8565b92915050565b600067ffffffffffffffff82169050919050565b620005388162000519565b81146200054457600080fd5b50565b60008151905062000558816200052d565b92915050565b6000819050919050565b62000573816200055e565b81146200057f57600080fd5b50565b600081519050620005938162000568565b92915050565b600063ffffffff82169050919050565b620005b48162000599565b8114620005c057600080fd5b50565b600081519050620005d481620005a9565b92915050565b600080fd5b6000601f19601f8301169050919050565b7f4e487b7100000000000000000000000000000000000000000000000000000000600052604160045260246000fd5b6200062a82620005df565b810181811067ffffffffffffffff821117156200064c576200064b620005f0565b5b80604052505050565b600062000661620004a0565b90506200066f82826200061f565b919050565b600067ffffffffffffffff821115620006925762000691620005f0565b5b602082029050919050565b600080fd5b600080fd5b600067ffffffffffffffff821115620006c557620006c4620005f0565b5b620006d082620005df565b9050602081019050919050565b60005b83811015620006fd578082015181840152602081019050620006e0565b838111156200070d576000848401525b50505050565b60006200072a6200072484620006a7565b62000655565b905082815260208101848484011115620007495762000748620006a2565b5b62000756848285620006dd565b509392505050565b600082601f830112620007765762000775620005da565b5b81516200078884826020860162000713565b91505092915050565b6000620007a8620007a28462000674565b62000655565b90508060208402830185811115620007c557620007c46200069d565b5b835b818110156200081357805167ffffffffffffffff811115620007ee57620007ed620005da565b5b808601620007fd89826200075e565b85526020850194505050602081019050620007c7565b5050509392505050565b600082601f830112620008355762000834620005da565b5b60036200084484828562000791565b91505092915050565b6000819050919050565b62000862816200084d565b81146200086e57600080fd5b50565b600081519050620008828162000857565b92915050565b60008060008060008060c08789031215620008a857620008a7620004aa565b5b6000620008b889828a0162000502565b9650506020620008cb89828a0162000547565b9550506040620008de89828a0162000582565b9450506060620008f189828a01620005c3565b935050608087015167ffffffffffffffff811115620009155762000914620004af565b5b6200092389828a016200081d565b92505060a06200093689828a0162000871565b9150509295509295509295565b7f4e487b7100000000000000000000000000000000000000000000000000000000600052602260045260246000fd5b600060028204905060018216806200098b57607f821691505b60208210811415620009a257620009a162000943565b5b50919050565b60805160a05160c05160e051610100516139a5620009f46000396000611069015260006110250152600061104601526000610fe901526000818161096301526109b701526139a56000f3fe60806040526004361061019c5760003560e01c806370a08231116100ec578063a51cccf31161008a578063c87b56dd11610064578063c87b56dd146105bb578063e985e9c5146105f8578063ee89dab414610635578063f2fde38b146106605761019c565b8063a51cccf314610537578063aa15249114610574578063b88d4fde146105925761019c565b80638da5cb5b116100c65780638da5cb5b1461047b57806395d89b41146104a6578063a22cb465146104d1578063a36f573b146104fa5761019c565b806370a08231146103fc578063715018a6146104395780637a5caab3146104505761019c565b806323b872dd1161015957806342842e0e1161013357806342842e0e146103405780635dacf5f4146103695780636352211e146103945780636e02007d146103d15761019c565b806323b872dd146102c35780633af25975146102ec5780633ccfd60b146103295761019c565b806301ffc9a7146101a157806306fdde03146101de578063081812fc14610209578063095ea7b3146102465780630b21a83b1461026f5780631fe543e31461029a575b600080fd5b3480156101ad57600080fd5b506101c860048036038101906101c39190612553565b610689565b6040516101d5919061259b565b60405180910390f35b3480156101ea57600080fd5b506101f361076b565b604051610200919061264f565b60405180910390f35b34801561021557600080fd5b50610230600480360381019061022b91906126a7565b6107fd565b60405161023d9190612715565b60405180910390f35b34801561025257600080fd5b5061026d6004803603810190610268919061275c565b610843565b005b34801561027b57600080fd5b5061028461095b565b60405161029191906127ab565b60405180910390f35b3480156102a657600080fd5b506102c160048036038101906102bc919061290e565b610961565b005b3480156102cf57600080fd5b506102ea60048036038101906102e5919061296a565b610a21565b005b3480156102f857600080fd5b50610313600480360381019061030e91906126a7565b610a81565b604051610320919061264f565b60405180910390f35b34801561033557600080fd5b5061033e610b31565b005b34801561034c57600080fd5b506103676004803603810190610362919061296a565b610be5565b005b34801561037557600080fd5b5061037e610c05565b60405161038b9190612a68565b60405180910390f35b3480156103a057600080fd5b506103bb60048036038101906103b691906126a7565b610c30565b6040516103c89190612715565b60405180910390f35b3480156103dd57600080fd5b506103e6610ce2565b6040516103f391906127ab565b60405180910390f35b34801561040857600080fd5b50610423600480360381019061041e9190612a83565b610cec565b60405161043091906127ab565b60405180910390f35b34801561044557600080fd5b5061044e610da4565b005b34801561045c57600080fd5b50610465610db8565b60405161047291906127ab565b60405180910390f35b34801561048757600080fd5b50610490610dc2565b60405161049d9190612715565b60405180910390f35b3480156104b257600080fd5b506104bb610dec565b6040516104c8919061264f565b60405180910390f35b3480156104dd57600080fd5b506104f860048036038101906104f39190612adc565b610e7e565b005b34801561050657600080fd5b50610521600480360381019061051c91906126a7565b610e94565b60405161052e9190612715565b60405180910390f35b34801561054357600080fd5b5061055e600480360381019061055991906126a7565b610ec7565b60405161056b9190612b93565b60405180910390f35b61057c610fa9565b60405161058991906127ab565b60405180910390f35b34801561059e57600080fd5b506105b960048036038101906105b49190612c63565b61118b565b005b3480156105c757600080fd5b506105e260048036038101906105dd91906126a7565b6111ed565b6040516105ef919061264f565b60405180910390f35b34801561060457600080fd5b5061061f600480360381019061061a9190612ce6565b611300565b60405161062c919061259b565b60405180910390f35b34801561064157600080fd5b5061064a611394565b604051610657919061259b565b60405180910390f35b34801561066c57600080fd5b5061068760048036038101906106829190612a83565b6113ab565b005b60007f80ac58cd000000000000000000000000000000000000000000000000000000007bffffffffffffffffffffffffffffffffffffffffffffffffffffffff1916827bffffffffffffffffffffffffffffffffffffffffffffffffffffffff1916148061075457507f5b5e139f000000000000000000000000000000000000000000000000000000007bffffffffffffffffffffffffffffffffffffffffffffffffffffffff1916827bffffffffffffffffffffffffffffffffffffffffffffffffffffffff1916145b8061076457506107638261142f565b5b9050919050565b60606000805461077a90612d55565b80601f01602080910402602001604051908101604052809291908181526020018280546107a690612d55565b80156107f35780601f106107c8576101008083540402835291602001916107f3565b820191906000526020600020905b8154815290600101906020018083116107d657829003601f168201915b5050505050905090565b600061080882611499565b6004600083815260200190815260200160002060009054906101000a900473ffffffffffffffffffffffffffffffffffffffff169050919050565b600061084e82610c30565b90508073ffffffffffffffffffffffffffffffffffffffff168373ffffffffffffffffffffffffffffffffffffffff1614156108bf576040517f08c379a00000000000000000000000000000000000000000000000000000000081526004016108b690612df9565b60405180910390fd5b8073ffffffffffffffffffffffffffffffffffffffff166108de6114e4565b73ffffffffffffffffffffffffffffffffffffffff16148061090d575061090c816109076114e4565b611300565b5b61094c576040517f08c379a000000000000000000000000000000000000000000000000000000000815260040161094390612e8b565b60405180910390fd5b61095683836114ec565b505050565b60095481565b7f000000000000000000000000000000000000000000000000000000000000000073ffffffffffffffffffffffffffffffffffffffff163373ffffffffffffffffffffffffffffffffffffffff1614610a1357337f00000000000000000000000000000000000000000000000000000000000000006040517f1cf993f4000000000000000000000000000000000000000000000000000000008152600401610a0a929190612eab565b60405180910390fd5b610a1d82826115a5565b5050565b610a32610a2c6114e4565b82611742565b610a71576040517f08c379a0000000000000000000000000000000000000000000000000000000008152600401610a6890612f46565b60405180910390fd5b610a7c8383836117d7565b505050565b6060600a8281548110610a9757610a96612f66565b5b906000526020600020018054610aac90612d55565b80601f0160208091040260200160405190810160405280929190818152602001828054610ad890612d55565b8015610b255780601f10610afa57610100808354040283529160200191610b25565b820191906000526020600020905b815481529060010190602001808311610b0857829003601f168201915b50505050509050919050565b610b39611a3e565b600047905060003373ffffffffffffffffffffffffffffffffffffffff1682604051610b6490612fc6565b60006040518083038185875af1925050503d8060008114610ba1576040519150601f19603f3d011682016040523d82523d6000602084013e610ba6565b606091505b5050905080610be1576040517fca7e25b700000000000000000000000000000000000000000000000000000000815260040160405180910390fd5b5050565b610c008383836040518060200160405280600081525061118b565b505050565b610c0d612422565b6040518060600160405280600a8152602001601e81526020016064815250905090565b6000806002600084815260200190815260200160002060009054906101000a900473ffffffffffffffffffffffffffffffffffffffff169050600073ffffffffffffffffffffffffffffffffffffffff168173ffffffffffffffffffffffffffffffffffffffff161415610cd9576040517f08c379a0000000000000000000000000000000000000000000000000000000008152600401610cd090613027565b60405180910390fd5b80915050919050565b6000600954905090565b60008073ffffffffffffffffffffffffffffffffffffffff168273ffffffffffffffffffffffffffffffffffffffff161415610d5d576040517f08c379a0000000000000000000000000000000000000000000000000000000008152600401610d54906130b9565b60405180910390fd5b600360008373ffffffffffffffffffffffffffffffffffffffff1673ffffffffffffffffffffffffffffffffffffffff168152602001908152602001600020549050919050565b610dac611a3e565b610db66000611abc565b565b6000600b54905090565b6000600760009054906101000a900473ffffffffffffffffffffffffffffffffffffffff16905090565b606060018054610dfb90612d55565b80601f0160208091040260200160405190810160405280929190818152602001828054610e2790612d55565b8015610e745780601f10610e4957610100808354040283529160200191610e74565b820191906000526020600020905b815481529060010190602001808311610e5757829003601f168201915b5050505050905090565b610e90610e896114e4565b8383611b82565b5050565b60086020528060005260406000206000915054906101000a900473ffffffffffffffffffffffffffffffffffffffff1681565b600080600090506000610ed8610c05565b905060005b6003811015610f7157828510158015610f175750818160038110610f0457610f03612f66565b5b602002015183610f149190613108565b85105b15610f3957806002811115610f2f57610f2e612b1c565b5b9350505050610fa4565b818160038110610f4c57610f4b612f66565b5b602002015183610f5c9190613108565b92508080610f699061315e565b915050610edd565b506040517fd403dde000000000000000000000000000000000000000000000000000000000815260040160405180910390fd5b919050565b6000600b54341015610fe7576040517ff64fbfee00000000000000000000000000000000000000000000000000000000815260040160405180910390fd5b7f000000000000000000000000000000000000000000000000000000000000000073ffffffffffffffffffffffffffffffffffffffff16635d3b1d307f00000000000000000000000000000000000000000000000000000000000000007f000000000000000000000000000000000000000000000000000000000000000060037f000000000000000000000000000000000000000000000000000000000000000060016040518663ffffffff1660e01b81526004016110aa95949392919061321f565b602060405180830381600087803b1580156110c457600080fd5b505af11580156110d8573d6000803e3d6000fd5b505050506040513d601f19601f820116820180604052508101906110fc9190613287565b9050336008600083815260200190815260200160002060006101000a81548173ffffffffffffffffffffffffffffffffffffffff021916908373ffffffffffffffffffffffffffffffffffffffff160217905550807ff873236e6cc0ecc5be1a9a35c95ee5b8d1ac4cc7bfef0cc5060391d6cc98e26b336040516111809190612715565b60405180910390a290565b61119c6111966114e4565b83611742565b6111db576040517f08c379a00000000000000000000000000000000000000000000000000000000081526004016111d290612f46565b60405180910390fd5b6111e784848484611cef565b50505050565b60606111f882611499565b600060066000848152602001908152602001600020805461121890612d55565b80601f016020809104026020016040519081016040528092919081815260200182805461124490612d55565b80156112915780601f1061126657610100808354040283529160200191611291565b820191906000526020600020905b81548152906001019060200180831161127457829003601f168201915b5050505050905060006112a2611d4b565b90506000815114156112b85781925050506112fb565b6000825111156112ed5780826040516020016112d59291906132f0565b604051602081830303815290604052925050506112fb565b6112f684611d62565b925050505b919050565b6000600560008473ffffffffffffffffffffffffffffffffffffffff1673ffffffffffffffffffffffffffffffffffffffff16815260200190815260200160002060008373ffffffffffffffffffffffffffffffffffffffff1673ffffffffffffffffffffffffffffffffffffffff16815260200190815260200160002060009054906101000a900460ff16905092915050565b6000600c60009054906101000a900460ff16905090565b6113b3611a3e565b600073ffffffffffffffffffffffffffffffffffffffff168173ffffffffffffffffffffffffffffffffffffffff161415611423576040517f08c379a000000000000000000000000000000000000000000000000000000000815260040161141a90613386565b60405180910390fd5b61142c81611abc565b50565b60007f01ffc9a7000000000000000000000000000000000000000000000000000000007bffffffffffffffffffffffffffffffffffffffffffffffffffffffff1916827bffffffffffffffffffffffffffffffffffffffffffffffffffffffff1916149050919050565b6114a281611dca565b6114e1576040517f08c379a00000000000000000000000000000000000000000000000000000000081526004016114d890613027565b60405180910390fd5b50565b600033905090565b816004600083815260200190815260200160002060006101000a81548173ffffffffffffffffffffffffffffffffffffffff021916908373ffffffffffffffffffffffffffffffffffffffff160217905550808273ffffffffffffffffffffffffffffffffffffffff1661155f83610c30565b73ffffffffffffffffffffffffffffffffffffffff167f8c5be1e5ebec7d5bd14f71427d1e84f3dd0314c0f7b2291e5b200ac8c7c3b92560405160405180910390a45050565b60006008600084815260200190815260200160002060009054906101000a900473ffffffffffffffffffffffffffffffffffffffff1690506000600954905060006064846000815181106115fc576115fb612f66565b5b602002602001015161160e91906133d5565b9050600061161b82610ec7565b9050600960008154809291906116309061315e565b919050555061163f8484611e36565b61170183600a83600281111561165857611657612b1c565b5b8154811061166957611668612f66565b5b90600052602060002001805461167e90612d55565b80601f01602080910402602001604051908101604052809291908181526020018280546116aa90612d55565b80156116f75780601f106116cc576101008083540402835291602001916116f7565b820191906000526020600020905b8154815290600101906020018083116116da57829003601f168201915b5050505050611e54565b7f8a269f26b688e110e9cbd887d163dab35cae678fa353a0292de532c0cac1ecdc8185604051611732929190613406565b60405180910390a1505050505050565b60008061174e83610c30565b90508073ffffffffffffffffffffffffffffffffffffffff168473ffffffffffffffffffffffffffffffffffffffff161480611790575061178f8185611300565b5b806117ce57508373ffffffffffffffffffffffffffffffffffffffff166117b6846107fd565b73ffffffffffffffffffffffffffffffffffffffff16145b91505092915050565b8273ffffffffffffffffffffffffffffffffffffffff166117f782610c30565b73ffffffffffffffffffffffffffffffffffffffff161461184d576040517f08c379a0000000000000000000000000000000000000000000000000000000008152600401611844906134a1565b60405180910390fd5b600073ffffffffffffffffffffffffffffffffffffffff168273ffffffffffffffffffffffffffffffffffffffff1614156118bd576040517f08c379a00000000000000000000000000000000000000000000000000000000081526004016118b490613533565b60405180910390fd5b6118c8838383611ec8565b6118d36000826114ec565b6001600360008573ffffffffffffffffffffffffffffffffffffffff1673ffffffffffffffffffffffffffffffffffffffff16815260200190815260200160002060008282546119239190613553565b925050819055506001600360008473ffffffffffffffffffffffffffffffffffffffff1673ffffffffffffffffffffffffffffffffffffffff168152602001908152602001600020600082825461197a9190613108565b92505081905550816002600083815260200190815260200160002060006101000a81548173ffffffffffffffffffffffffffffffffffffffff021916908373ffffffffffffffffffffffffffffffffffffffff160217905550808273ffffffffffffffffffffffffffffffffffffffff168473ffffffffffffffffffffffffffffffffffffffff167fddf252ad1be2c89b69c2b068fc378daa952ba7f163c4a11628f55a4df523b3ef60405160405180910390a4611a39838383611ecd565b505050565b611a466114e4565b73ffffffffffffffffffffffffffffffffffffffff16611a64610dc2565b73ffffffffffffffffffffffffffffffffffffffff1614611aba576040517f08c379a0000000000000000000000000000000000000000000000000000000008152600401611ab1906135d3565b60405180910390fd5b565b6000600760009054906101000a900473ffffffffffffffffffffffffffffffffffffffff16905081600760006101000a81548173ffffffffffffffffffffffffffffffffffffffff021916908373ffffffffffffffffffffffffffffffffffffffff1602179055508173ffffffffffffffffffffffffffffffffffffffff168173ffffffffffffffffffffffffffffffffffffffff167f8be0079c531659141344cd1fd0a4f28419497f9722a3daafe3b4186f6b6457e060405160405180910390a35050565b8173ffffffffffffffffffffffffffffffffffffffff168373ffffffffffffffffffffffffffffffffffffffff161415611bf1576040517f08c379a0000000000000000000000000000000000000000000000000000000008152600401611be89061363f565b60405180910390fd5b80600560008573ffffffffffffffffffffffffffffffffffffffff1673ffffffffffffffffffffffffffffffffffffffff16815260200190815260200160002060008473ffffffffffffffffffffffffffffffffffffffff1673ffffffffffffffffffffffffffffffffffffffff16815260200190815260200160002060006101000a81548160ff0219169083151502179055508173ffffffffffffffffffffffffffffffffffffffff168373ffffffffffffffffffffffffffffffffffffffff167f17307eab39ab6107e8899845ad3d59bd9653f200f220920489ca2b5937696c3183604051611ce2919061259b565b60405180910390a3505050565b611cfa8484846117d7565b611d0684848484611ed2565b611d45576040517f08c379a0000000000000000000000000000000000000000000000000000000008152600401611d3c906136d1565b60405180910390fd5b50505050565b606060405180602001604052806000815250905090565b6060611d6d82611499565b6000611d77611d4b565b90506000815111611d975760405180602001604052806000815250611dc2565b80611da184612069565b604051602001611db29291906132f0565b6040516020818303038152906040525b915050919050565b60008073ffffffffffffffffffffffffffffffffffffffff166002600084815260200190815260200160002060009054906101000a900473ffffffffffffffffffffffffffffffffffffffff1673ffffffffffffffffffffffffffffffffffffffff1614159050919050565b611e508282604051806020016040528060008152506121ca565b5050565b611e5d82611dca565b611e9c576040517f08c379a0000000000000000000000000000000000000000000000000000000008152600401611e9390613763565b60405180910390fd5b80600660008481526020019081526020016000209080519060200190611ec3929190612444565b505050565b505050565b505050565b6000611ef38473ffffffffffffffffffffffffffffffffffffffff16612225565b1561205c578373ffffffffffffffffffffffffffffffffffffffff1663150b7a02611f1c6114e4565b8786866040518563ffffffff1660e01b8152600401611f3e94939291906137d8565b602060405180830381600087803b158015611f5857600080fd5b505af1925050508015611f8957506040513d601f19601f82011682018060405250810190611f869190613839565b60015b61200c573d8060008114611fb9576040519150601f19603f3d011682016040523d82523d6000602084013e611fbe565b606091505b50600081511415612004576040517f08c379a0000000000000000000000000000000000000000000000000000000008152600401611ffb906136d1565b60405180910390fd5b805181602001fd5b63150b7a0260e01b7bffffffffffffffffffffffffffffffffffffffffffffffffffffffff1916817bffffffffffffffffffffffffffffffffffffffffffffffffffffffff191614915050612061565b600190505b949350505050565b606060008214156120b1576040518060400160405280600181526020017f300000000000000000000000000000000000000000000000000000000000000081525090506121c5565b600082905060005b600082146120e35780806120cc9061315e565b915050600a826120dc9190613866565b91506120b9565b60008167ffffffffffffffff8111156120ff576120fe6127cb565b5b6040519080825280601f01601f1916602001820160405280156121315781602001600182028036833780820191505090505b5090505b600085146121be5760018261214a9190613553565b9150600a8561215991906133d5565b60306121659190613108565b60f81b81838151811061217b5761217a612f66565b5b60200101907effffffffffffffffffffffffffffffffffffffffffffffffffffffffffffff1916908160001a905350600a856121b79190613866565b9450612135565b8093505050505b919050565b6121d48383612248565b6121e16000848484611ed2565b612220576040517f08c379a0000000000000000000000000000000000000000000000000000000008152600401612217906136d1565b60405180910390fd5b505050565b6000808273ffffffffffffffffffffffffffffffffffffffff163b119050919050565b600073ffffffffffffffffffffffffffffffffffffffff168273ffffffffffffffffffffffffffffffffffffffff1614156122b8576040517f08c379a00000000000000000000000000000000000000000000000000000000081526004016122af906138e3565b60405180910390fd5b6122c181611dca565b15612301576040517f08c379a00000000000000000000000000000000000000000000000000000000081526004016122f89061394f565b60405180910390fd5b61230d60008383611ec8565b6001600360008473ffffffffffffffffffffffffffffffffffffffff1673ffffffffffffffffffffffffffffffffffffffff168152602001908152602001600020600082825461235d9190613108565b92505081905550816002600083815260200190815260200160002060006101000a81548173ffffffffffffffffffffffffffffffffffffffff021916908373ffffffffffffffffffffffffffffffffffffffff160217905550808273ffffffffffffffffffffffffffffffffffffffff16600073ffffffffffffffffffffffffffffffffffffffff167fddf252ad1be2c89b69c2b068fc378daa952ba7f163c4a11628f55a4df523b3ef60405160405180910390a461241e60008383611ecd565b5050565b6040518060600160405280600390602082028036833780820191505090505090565b82805461245090612d55565b90600052602060002090601f01602090048101928261247257600085556124b9565b82601f1061248b57805160ff19168380011785556124b9565b828001600101855582156124b9579182015b828111156124b857825182559160200191906001019061249d565b5b5090506124c691906124ca565b5090565b5b808211156124e35760008160009055506001016124cb565b5090565b6000604051905090565b600080fd5b600080fd5b60007fffffffff0000000000000000000000000000000000000000000000000000000082169050919050565b612530816124fb565b811461253b57600080fd5b50565b60008135905061254d81612527565b92915050565b600060208284031215612569576125686124f1565b5b60006125778482850161253e565b91505092915050565b60008115159050919050565b61259581612580565b82525050565b60006020820190506125b0600083018461258c565b92915050565b600081519050919050565b600082825260208201905092915050565b60005b838110156125f05780820151818401526020810190506125d5565b838111156125ff576000848401525b50505050565b6000601f19601f8301169050919050565b6000612621826125b6565b61262b81856125c1565b935061263b8185602086016125d2565b61264481612605565b840191505092915050565b600060208201905081810360008301526126698184612616565b905092915050565b6000819050919050565b61268481612671565b811461268f57600080fd5b50565b6000813590506126a18161267b565b92915050565b6000602082840312156126bd576126bc6124f1565b5b60006126cb84828501612692565b91505092915050565b600073ffffffffffffffffffffffffffffffffffffffff82169050919050565b60006126ff826126d4565b9050919050565b61270f816126f4565b82525050565b600060208201905061272a6000830184612706565b92915050565b612739816126f4565b811461274457600080fd5b50565b60008135905061275681612730565b92915050565b60008060408385031215612773576127726124f1565b5b600061278185828601612747565b925050602061279285828601612692565b9150509250929050565b6127a581612671565b82525050565b60006020820190506127c0600083018461279c565b92915050565b600080fd5b7f4e487b7100000000000000000000000000000000000000000000000000000000600052604160045260246000fd5b61280382612605565b810181811067ffffffffffffffff82111715612822576128216127cb565b5b80604052505050565b60006128356124e7565b905061284182826127fa565b919050565b600067ffffffffffffffff821115612861576128606127cb565b5b602082029050602081019050919050565b600080fd5b600061288a61288584612846565b61282b565b905080838252602082019050602084028301858111156128ad576128ac612872565b5b835b818110156128d657806128c28882612692565b8452602084019350506020810190506128af565b5050509392505050565b600082601f8301126128f5576128f46127c6565b5b8135612905848260208601612877565b91505092915050565b60008060408385031215612925576129246124f1565b5b600061293385828601612692565b925050602083013567ffffffffffffffff811115612954576129536124f6565b5b612960858286016128e0565b9150509250929050565b600080600060608486031215612983576129826124f1565b5b600061299186828701612747565b93505060206129a286828701612747565b92505060406129b386828701612692565b9150509250925092565b600060039050919050565b600081905092915050565b6000819050919050565b6129e681612671565b82525050565b60006129f883836129dd565b60208301905092915050565b6000602082019050919050565b612a1a816129bd565b612a2481846129c8565b9250612a2f826129d3565b8060005b83811015612a60578151612a4787826129ec565b9650612a5283612a04565b925050600181019050612a33565b505050505050565b6000606082019050612a7d6000830184612a11565b92915050565b600060208284031215612a9957612a986124f1565b5b6000612aa784828501612747565b91505092915050565b612ab981612580565b8114612ac457600080fd5b50565b600081359050612ad681612ab0565b92915050565b60008060408385031215612af357612af26124f1565b5b6000612b0185828601612747565b9250506020612b1285828601612ac7565b9150509250929050565b7f4e487b7100000000000000000000000000000000000000000000000000000000600052602160045260246000fd5b60038110612b5c57612b5b612b1c565b5b50565b6000819050612b6d82612b4b565b919050565b6000612b7d82612b5f565b9050919050565b612b8d81612b72565b82525050565b6000602082019050612ba86000830184612b84565b92915050565b600080fd5b600067ffffffffffffffff821115612bce57612bcd6127cb565b5b612bd782612605565b9050602081019050919050565b82818337600083830152505050565b6000612c06612c0184612bb3565b61282b565b905082815260208101848484011115612c2257612c21612bae565b5b612c2d848285612be4565b509392505050565b600082601f830112612c4a57612c496127c6565b5b8135612c5a848260208601612bf3565b91505092915050565b60008060008060808587031215612c7d57612c7c6124f1565b5b6000612c8b87828801612747565b9450506020612c9c87828801612747565b9350506040612cad87828801612692565b925050606085013567ffffffffffffffff811115612cce57612ccd6124f6565b5b612cda87828801612c35565b91505092959194509250565b60008060408385031215612cfd57612cfc6124f1565b5b6000612d0b85828601612747565b9250506020612d1c85828601612747565b9150509250929050565b7f4e487b7100000000000000000000000000000000000000000000000000000000600052602260045260246000fd5b60006002820490506001821680612d6d57607f821691505b60208210811415612d8157612d80612d26565b5b50919050565b7f4552433732313a20617070726f76616c20746f2063757272656e74206f776e6560008201527f7200000000000000000000000000000000000000000000000000000000000000602082015250565b6000612de36021836125c1565b9150612dee82612d87565b604082019050919050565b60006020820190508181036000830152612e1281612dd6565b9050919050565b7f4552433732313a20617070726f76652063616c6c6572206973206e6f7420746f60008201527f6b656e206f776e6572206e6f7220617070726f76656420666f7220616c6c0000602082015250565b6000612e75603e836125c1565b9150612e8082612e19565b604082019050919050565b60006020820190508181036000830152612ea481612e68565b9050919050565b6000604082019050612ec06000830185612706565b612ecd6020830184612706565b9392505050565b7f4552433732313a2063616c6c6572206973206e6f7420746f6b656e206f776e6560008201527f72206e6f7220617070726f766564000000000000000000000000000000000000602082015250565b6000612f30602e836125c1565b9150612f3b82612ed4565b604082019050919050565b60006020820190508181036000830152612f5f81612f23565b9050919050565b7f4e487b7100000000000000000000000000000000000000000000000000000000600052603260045260246000fd5b600081905092915050565b50565b6000612fb0600083612f95565b9150612fbb82612fa0565b600082019050919050565b6000612fd182612fa3565b9150819050919050565b7f4552433732313a20696e76616c696420746f6b656e2049440000000000000000600082015250565b60006130116018836125c1565b915061301c82612fdb565b602082019050919050565b6000602082019050818103600083015261304081613004565b9050919050565b7f4552433732313a2061646472657373207a65726f206973206e6f74206120766160008201527f6c6964206f776e65720000000000000000000000000000000000000000000000602082015250565b60006130a36029836125c1565b91506130ae82613047565b604082019050919050565b600060208201905081810360008301526130d281613096565b9050919050565b7f4e487b7100000000000000000000000000000000000000000000000000000000600052601160045260246000fd5b600061311382612671565b915061311e83612671565b9250827fffffffffffffffffffffffffffffffffffffffffffffffffffffffffffffffff03821115613153576131526130d9565b5b828201905092915050565b600061316982612671565b91507fffffffffffffffffffffffffffffffffffffffffffffffffffffffffffffffff82141561319c5761319b6130d9565b5b600182019050919050565b6000819050919050565b6131ba816131a7565b82525050565b600067ffffffffffffffff82169050919050565b6131dd816131c0565b82525050565b600061ffff82169050919050565b6131fa816131e3565b82525050565b600063ffffffff82169050919050565b61321981613200565b82525050565b600060a08201905061323460008301886131b1565b61324160208301876131d4565b61324e60408301866131f1565b61325b6060830185613210565b6132686080830184613210565b9695505050505050565b6000815190506132818161267b565b92915050565b60006020828403121561329d5761329c6124f1565b5b60006132ab84828501613272565b91505092915050565b600081905092915050565b60006132ca826125b6565b6132d481856132b4565b93506132e48185602086016125d2565b80840191505092915050565b60006132fc82856132bf565b915061330882846132bf565b91508190509392505050565b7f4f776e61626c653a206e6577206f776e657220697320746865207a65726f206160008201527f6464726573730000000000000000000000000000000000000000000000000000602082015250565b60006133706026836125c1565b915061337b82613314565b604082019050919050565b6000602082019050818103600083015261339f81613363565b9050919050565b7f4e487b7100000000000000000000000000000000000000000000000000000000600052601260045260246000fd5b60006133e082612671565b91506133eb83612671565b9250826133fb576133fa6133a6565b5b828206905092915050565b600060408201905061341b6000830185612b84565b6134286020830184612706565b9392505050565b7f4552433732313a207472616e736665722066726f6d20696e636f72726563742060008201527f6f776e6572000000000000000000000000000000000000000000000000000000602082015250565b600061348b6025836125c1565b91506134968261342f565b604082019050919050565b600060208201905081810360008301526134ba8161347e565b9050919050565b7f4552433732313a207472616e7366657220746f20746865207a65726f2061646460008201527f7265737300000000000000000000000000000000000000000000000000000000602082015250565b600061351d6024836125c1565b9150613528826134c1565b604082019050919050565b6000602082019050818103600083015261354c81613510565b9050919050565b600061355e82612671565b915061356983612671565b92508282101561357c5761357b6130d9565b5b828203905092915050565b7f4f776e61626c653a2063616c6c6572206973206e6f7420746865206f776e6572600082015250565b60006135bd6020836125c1565b91506135c882613587565b602082019050919050565b600060208201905081810360008301526135ec816135b0565b9050919050565b7f4552433732313a20617070726f766520746f2063616c6c657200000000000000600082015250565b60006136296019836125c1565b9150613634826135f3565b602082019050919050565b600060208201905081810360008301526136588161361c565b9050919050565b7f4552433732313a207472616e7366657220746f206e6f6e20455243373231526560008201527f63656976657220696d706c656d656e7465720000000000000000000000000000602082015250565b60006136bb6032836125c1565b91506136c68261365f565b604082019050919050565b600060208201905081810360008301526136ea816136ae565b9050919050565b7f45524337323155524953746f726167653a2055524920736574206f66206e6f6e60008201527f6578697374656e7420746f6b656e000000000000000000000000000000000000602082015250565b600061374d602e836125c1565b9150613758826136f1565b604082019050919050565b6000602082019050818103600083015261377c81613740565b9050919050565b600081519050919050565b600082825260208201905092915050565b60006137aa82613783565b6137b4818561378e565b93506137c48185602086016125d2565b6137cd81612605565b840191505092915050565b60006080820190506137ed6000830187612706565b6137fa6020830186612706565b613807604083018561279c565b8181036060830152613819818461379f565b905095945050505050565b60008151905061383381612527565b92915050565b60006020828403121561384f5761384e6124f1565b5b600061385d84828501613824565b91505092915050565b600061387182612671565b915061387c83612671565b92508261388c5761388b6133a6565b5b828204905092915050565b7f4552433732313a206d696e7420746f20746865207a65726f2061646472657373600082015250565b60006138cd6020836125c1565b91506138d882613897565b602082019050919050565b600060208201905081810360008301526138fc816138c0565b9050919050565b7f4552433732313a20746f6b656e20616c7265616479206d696e74656400000000600082015250565b6000613939601c836125c1565b915061394482613903565b602082019050919050565b600060208201905081810360008301526139688161392c565b905091905056fea26469706673582212207117dbf3ca9ea9a782a398a49b83faadc9aac1e1cc679ff25112dd262666cecb64736f6c63430008090033",
  "devdoc": {
    "kind": "dev",
    "methods": {
      "approve(address,uint256)": {
        "details": "See {IERC721-approve}."
      },
      "balanceOf(address)": {
        "details": "See {IERC721-balanceOf}."
      },
      "getApproved(uint256)": {
        "details": "See {IERC721-getApproved}."
      },
      "isApprovedForAll(address,address)": {
        "details": "See {IERC721-isApprovedForAll}."
      },
      "name()": {
        "details": "See {IERC721Metadata-name}."
      },
      "owner()": {
        "details": "Returns the address of the current owner."
      },
      "ownerOf(uint256)": {
        "details": "See {IERC721-ownerOf}."
      },
      "renounceOwnership()": {
        "details": "Leaves the contract without owner. It will not be possible to call `onlyOwner` functions anymore. Can only be called by the current owner. NOTE: Renouncing ownership will leave the contract without an owner, thereby removing any functionality that is only available to the owner."
      },
      "safeTransferFrom(address,address,uint256)": {
        "details": "See {IERC721-safeTransferFrom}."
      },
      "safeTransferFrom(address,address,uint256,bytes)": {
        "details": "See {IERC721-safeTransferFrom}."
      },
      "setApprovalForAll(address,bool)": {
        "details": "See {IERC721-setApprovalForAll}."
      },
      "supportsInterface(bytes4)": {
        "details": "See {IERC165-supportsInterface}."
      },
      "symbol()": {
        "details": "See {IERC721Metadata-symbol}."
      },
      "tokenURI(uint256)": {
        "details": "See {IERC721Metadata-tokenURI}."
      },
      "transferFrom(address,address,uint256)": {
        "details": "See {IERC721-transferFrom}."
      },
      "transferOwnership(address)": {
        "details": "Transfers ownership of the contract to a new account (`newOwner`). Can only be called by the current owner."
      }
    },
    "version": 1
  },
  "userdoc": {
    "kind": "user",
    "methods": {},
    "version": 1
  },
  "storageLayout": {
    "storage": [
      {
        "astId": 285,
        "contract": "contracts/RandomIpfsNft.sol:RandomIpfsNft",
        "label": "_name",
        "offset": 0,
        "slot": "0",
        "type": "t_string_storage"
      },
      {
        "astId": 287,
        "contract": "contracts/RandomIpfsNft.sol:RandomIpfsNft",
        "label": "_symbol",
        "offset": 0,
        "slot": "1",
        "type": "t_string_storage"
      },
      {
        "astId": 291,
        "contract": "contracts/RandomIpfsNft.sol:RandomIpfsNft",
        "label": "_owners",
        "offset": 0,
        "slot": "2",
        "type": "t_mapping(t_uint256,t_address)"
      },
      {
        "astId": 295,
        "contract": "contracts/RandomIpfsNft.sol:RandomIpfsNft",
        "label": "_balances",
        "offset": 0,
        "slot": "3",
        "type": "t_mapping(t_address,t_uint256)"
      },
      {
        "astId": 299,
        "contract": "contracts/RandomIpfsNft.sol:RandomIpfsNft",
        "label": "_tokenApprovals",
        "offset": 0,
        "slot": "4",
        "type": "t_mapping(t_uint256,t_address)"
      },
      {
        "astId": 305,
        "contract": "contracts/RandomIpfsNft.sol:RandomIpfsNft",
        "label": "_operatorApprovals",
        "offset": 0,
        "slot": "5",
        "type": "t_mapping(t_address,t_mapping(t_address,t_bool))"
      },
      {
        "astId": 1273,
        "contract": "contracts/RandomIpfsNft.sol:RandomIpfsNft",
        "label": "_tokenURIs",
        "offset": 0,
        "slot": "6",
        "type": "t_mapping(t_uint256,t_string_storage)"
      },
      {
        "astId": 154,
        "contract": "contracts/RandomIpfsNft.sol:RandomIpfsNft",
        "label": "_owner",
        "offset": 0,
        "slot": "7",
        "type": "t_address"
      },
      {
        "astId": 2034,
        "contract": "contracts/RandomIpfsNft.sol:RandomIpfsNft",
        "label": "s_requestIdToSender",
        "offset": 0,
        "slot": "8",
        "type": "t_mapping(t_uint256,t_address)"
      },
      {
        "astId": 2036,
        "contract": "contracts/RandomIpfsNft.sol:RandomIpfsNft",
        "label": "s_tokenCounter",
        "offset": 0,
        "slot": "9",
        "type": "t_uint256"
      },
      {
        "astId": 2042,
        "contract": "contracts/RandomIpfsNft.sol:RandomIpfsNft",
        "label": "s_dogTokenUris",
        "offset": 0,
        "slot": "10",
        "type": "t_array(t_string_storage)dyn_storage"
      },
      {
        "astId": 2044,
        "contract": "contracts/RandomIpfsNft.sol:RandomIpfsNft",
        "label": "i_mintFee",
        "offset": 0,
        "slot": "11",
        "type": "t_uint256"
      },
      {
        "astId": 2046,
        "contract": "contracts/RandomIpfsNft.sol:RandomIpfsNft",
        "label": "s_initialized",
        "offset": 0,
        "slot": "12",
        "type": "t_bool"
      }
    ],
    "types": {
      "t_address": {
        "encoding": "inplace",
        "label": "address",
        "numberOfBytes": "20"
      },
      "t_array(t_string_storage)dyn_storage": {
        "base": "t_string_storage",
        "encoding": "dynamic_array",
        "label": "string[]",
        "numberOfBytes": "32"
      },
      "t_bool": {
        "encoding": "inplace",
        "label": "bool",
        "numberOfBytes": "1"
      },
      "t_mapping(t_address,t_bool)": {
        "encoding": "mapping",
        "key": "t_address",
        "label": "mapping(address => bool)",
        "numberOfBytes": "32",
        "value": "t_bool"
      },
      "t_mapping(t_address,t_mapping(t_address,t_bool))": {
        "encoding": "mapping",
        "key": "t_address",
        "label": "mapping(address => mapping(address => bool))",
        "numberOfBytes": "32",
        "value": "t_mapping(t_address,t_bool)"
      },
      "t_mapping(t_address,t_uint256)": {
        "encoding": "mapping",
        "key": "t_address",
        "label": "mapping(address => uint256)",
        "numberOfBytes": "32",
        "value": "t_uint256"
      },
      "t_mapping(t_uint256,t_address)": {
        "encoding": "mapping",
        "key": "t_uint256",
        "label": "mapping(uint256 => address)",
        "numberOfBytes": "32",
        "value": "t_address"
      },
      "t_mapping(t_uint256,t_string_storage)": {
        "encoding": "mapping",
        "key": "t_uint256",
        "label": "mapping(uint256 => string)",
        "numberOfBytes": "32",
        "value": "t_string_storage"
      },
      "t_string_storage": {
        "encoding": "bytes",
        "label": "string",
        "numberOfBytes": "32"
      },
      "t_uint256": {
        "encoding": "inplace",
        "label": "uint256",
        "numberOfBytes": "32"
      }
    }
  }
}