{
  "address": "0x421C7cFcDFcda9061CA965158E9E88a99de7B292",
  "abi": [
    {
      "inputs": [
        {
          "internalType": "address",
          "name": "vrfCoordinatorV2",
          "type": "address"
        },
        {
          "internalType": "uint256",
          "name": "entranceFee",
          "type": "uint256"
        },
        {
          "internalType": "bytes32",
          "name": "gasLane",
          "type": "bytes32"
        },
        {
          "internalType": "uint64",
          "name": "subscriptionId",
          "type": "uint64"
        },
        {
          "internalType": "uint32",
          "name": "callbackGasLimit",
          "type": "uint32"
        },
        {
          "internalType": "uint256",
          "name": "interval",
          "type": "uint256"
        }
      ],
      "stateMutability": "nonpayable",
      "type": "constructor"
    },
    {
      "inputs": [],
      "name": "Lottery__LoteryNotOpen",
      "type": "error"
    },
    {
      "inputs": [],
      "name": "Lottery__SendMoreToEnterLottery",
      "type": "error"
    },
    {
      "inputs": [],
      "name": "Lottery__TransferFailed",
      "type": "error"
    },
    {
      "inputs": [
        {
          "internalType": "uint256",
          "name": "currentBalance",
          "type": "uint256"
        },
        {
          "internalType": "uint256",
          "name": "numPlayers",
          "type": "uint256"
        },
        {
          "internalType": "uint256",
          "name": "lotteryState",
          "type": "uint256"
        }
      ],
      "name": "Lottery__upKeepNotNeeded",
      "type": "error"
    },
    {
      "inputs": [
        {
          "internalType": "address",
          "name": "have",
          "type": "address"
        },
        {
          "internalType": "address",
          "name": "want",
          "type": "address"
        }
      ],
      "name": "OnlyCoordinatorCanFulfill",
      "type": "error"
    },
    {
      "anonymous": false,
      "inputs": [
        {
          "indexed": true,
          "internalType": "address",
          "name": "player",
          "type": "address"
        }
      ],
      "name": "LotteryEnter",
      "type": "event"
    },
    {
      "anonymous": false,
      "inputs": [
        {
          "indexed": true,
          "internalType": "uint256",
          "name": "requestId",
          "type": "uint256"
        }
      ],
      "name": "RequestedLotteryWinner",
      "type": "event"
    },
    {
      "anonymous": false,
      "inputs": [
        {
          "indexed": true,
          "internalType": "address",
          "name": "winner",
          "type": "address"
        }
      ],
      "name": "WinnerPicked",
      "type": "event"
    },
    {
      "inputs": [
        {
          "internalType": "bytes",
          "name": "",
          "type": "bytes"
        }
      ],
      "name": "checkUpkeep",
      "outputs": [
        {
          "internalType": "bool",
          "name": "upKeepNeeded",
          "type": "bool"
        },
        {
          "internalType": "bytes",
          "name": "",
          "type": "bytes"
        }
      ],
      "stateMutability": "nonpayable",
      "type": "function"
    },
    {
      "inputs": [],
      "name": "enterLottery",
      "outputs": [],
      "stateMutability": "payable",
      "type": "function"
    },
    {
      "inputs": [],
      "name": "getEntranceFee",
      "outputs": [
        {
          "internalType": "uint256",
          "name": "",
          "type": "uint256"
        }
      ],
      "stateMutability": "view",
      "type": "function"
    },
    {
      "inputs": [],
      "name": "getInterval",
      "outputs": [
        {
          "internalType": "uint256",
          "name": "",
          "type": "uint256"
        }
      ],
      "stateMutability": "view",
      "type": "function"
    },
    {
      "inputs": [],
      "name": "getLatestTimestamp",
      "outputs": [
        {
          "internalType": "uint256",
          "name": "",
          "type": "uint256"
        }
      ],
      "stateMutability": "view",
      "type": "function"
    },
    {
      "inputs": [],
      "name": "getLotteryState",
      "outputs": [
        {
          "internalType": "enum Lottery.LotteryState",
          "name": "",
          "type": "uint8"
        }
      ],
      "stateMutability": "view",
      "type": "function"
    },
    {
      "inputs": [],
      "name": "getNumWords",
      "outputs": [
        {
          "internalType": "uint256",
          "name": "",
          "type": "uint256"
        }
      ],
      "stateMutability": "pure",
      "type": "function"
    },
    {
      "inputs": [],
      "name": "getNumberOfPlayers",
      "outputs": [
        {
          "internalType": "uint256",
          "name": "",
          "type": "uint256"
        }
      ],
      "stateMutability": "view",
      "type": "function"
    },
    {
      "inputs": [
        {
          "internalType": "uint256",
          "name": "index",
          "type": "uint256"
        }
      ],
      "name": "getPlayer",
      "outputs": [
        {
          "internalType": "address",
          "name": "",
          "type": "address"
        }
      ],
      "stateMutability": "view",
      "type": "function"
    },
    {
      "inputs": [],
      "name": "getRecentWinner",
      "outputs": [
        {
          "internalType": "address",
          "name": "",
          "type": "address"
        }
      ],
      "stateMutability": "view",
      "type": "function"
    },
    {
      "inputs": [],
      "name": "getRequestConfirmations",
      "outputs": [
        {
          "internalType": "uint256",
          "name": "",
          "type": "uint256"
        }
      ],
      "stateMutability": "pure",
      "type": "function"
    },
    {
      "inputs": [
        {
          "internalType": "bytes",
          "name": "",
          "type": "bytes"
        }
      ],
      "name": "performUpkeep",
      "outputs": [],
      "stateMutability": "nonpayable",
      "type": "function"
    },
    {
      "inputs": [
        {
          "internalType": "uint256",
          "name": "requestId",
          "type": "uint256"
        },
        {
          "internalType": "uint256[]",
          "name": "randomWords",
          "type": "uint256[]"
        }
      ],
      "name": "rawFulfillRandomWords",
      "outputs": [],
      "stateMutability": "nonpayable",
      "type": "function"
    }
  ],
  "transactionHash": "0xc5b5eb35ac809615d3867375c7b51c52bcdd587098ff48035c26041a4948520b",
  "args": [
    "0x2Ca8E0C643bDe4C2E08ab1fA0da3401AdAD7734D",
    "10000000000000000",
    "0x79d3d8832d904592c0bf9818b621522c988bb8b0c05cdc3b15aea1b6e8db0c15",
    "772",
    "2500000",
    "30"
  ],
  "numDeployments": 1,
  "solcInputHash": "a5da338eda41eb506f8704276ff1d267",
  "bytecode": "0x6101606040523480156200001257600080fd5b506040516200181d3803806200181d833981810160405281019062000038919062000294565b858073ffffffffffffffffffffffffffffffffffffffff1660808173ffffffffffffffffffffffffffffffffffffffff1681525050508460c081815250508573ffffffffffffffffffffffffffffffffffffffff1660a08173ffffffffffffffffffffffffffffffffffffffff16815250508360e081815250508267ffffffffffffffff166101008167ffffffffffffffff16815250508163ffffffff166101208163ffffffff16815250506000600360006101000a81548160ff021916908360018111156200010d576200010c62000330565b5b0217905550426001819055508061014081815250505050505050506200035f565b600080fd5b600073ffffffffffffffffffffffffffffffffffffffff82169050919050565b6000620001608262000133565b9050919050565b620001728162000153565b81146200017e57600080fd5b50565b600081519050620001928162000167565b92915050565b6000819050919050565b620001ad8162000198565b8114620001b957600080fd5b50565b600081519050620001cd81620001a2565b92915050565b6000819050919050565b620001e881620001d3565b8114620001f457600080fd5b50565b6000815190506200020881620001dd565b92915050565b600067ffffffffffffffff82169050919050565b6200022d816200020e565b81146200023957600080fd5b50565b6000815190506200024d8162000222565b92915050565b600063ffffffff82169050919050565b6200026e8162000253565b81146200027a57600080fd5b50565b6000815190506200028e8162000263565b92915050565b60008060008060008060c08789031215620002b457620002b36200012e565b5b6000620002c489828a0162000181565b9650506020620002d789828a01620001bc565b9550506040620002ea89828a01620001f7565b9450506060620002fd89828a016200023c565b93505060806200031089828a016200027d565b92505060a06200032389828a01620001bc565b9150509295509295509295565b7f4e487b7100000000000000000000000000000000000000000000000000000000600052602160045260246000fd5b60805160a05160c05160e05161010051610120516101405161144e620003cf6000396000818161067d01526106eb01526000610516015260006104f3015260006104d20152600081816102fa0152610711015260006104960152600081816103200152610374015261144e6000f3fe6080604052600436106100c25760003560e01c80636b68c03c1161007f578063c1af578511610059578063c1af578514610259578063e55ae4e814610263578063f43b52cb146102a0578063fd6673f5146102cb576100c2565b80636b68c03c146101c55780636e04ff0d146101f057806391ad27b41461022e576100c2565b806309bc33a7146100c75780631fe543e3146100f25780634585e33b1461011b578063473f1ddc1461014457806353a2c19a1461016f5780635f1b0fd81461019a575b600080fd5b3480156100d357600080fd5b506100dc6102f6565b6040516100e99190610bcf565b60405180910390f35b3480156100fe57600080fd5b5061011960048036038101906101149190610d83565b61031e565b005b34801561012757600080fd5b50610142600480360381019061013d9190610e3a565b6103de565b005b34801561015057600080fd5b506101596105de565b6040516101669190610ec8565b60405180910390f35b34801561017b57600080fd5b50610184610607565b6040516101919190610bcf565b60405180910390f35b3480156101a657600080fd5b506101af610616565b6040516101bc9190610bcf565b60405180910390f35b3480156101d157600080fd5b506101da610623565b6040516101e79190610f5a565b60405180910390f35b3480156101fc57600080fd5b506102176004803603810190610212919061102a565b61063a565b604051610225929190611116565b60405180910390f35b34801561023a57600080fd5b506102436106e7565b6040516102509190610bcf565b60405180910390f35b61026161070f565b005b34801561026f57600080fd5b5061028a60048036038101906102859190611146565b61087e565b6040516102979190610ec8565b60405180910390f35b3480156102ac57600080fd5b506102b56108c6565b6040516102c29190610bcf565b60405180910390f35b3480156102d757600080fd5b506102e06108d0565b6040516102ed9190610bcf565b60405180910390f35b60007f0000000000000000000000000000000000000000000000000000000000000000905090565b7f000000000000000000000000000000000000000000000000000000000000000073ffffffffffffffffffffffffffffffffffffffff163373ffffffffffffffffffffffffffffffffffffffff16146103d057337f00000000000000000000000000000000000000000000000000000000000000006040517f1cf993f40000000000000000000000000000000000000000000000000000000081526004016103c7929190611173565b60405180910390fd5b6103da82826108dd565b5050565b60006103f86040518060200160405280600081525061063a565b509050806104675747600280549050600360009054906101000a900460ff16600181111561042957610428610ee3565b5b6040517fca1e13d000000000000000000000000000000000000000000000000000000000815260040161045e9392919061119c565b60405180910390fd5b6001600360006101000a81548160ff0219169083600181111561048d5761048c610ee3565b5b021790555060007f000000000000000000000000000000000000000000000000000000000000000073ffffffffffffffffffffffffffffffffffffffff16635d3b1d307f00000000000000000000000000000000000000000000000000000000000000007f000000000000000000000000000000000000000000000000000000000000000060037f000000000000000000000000000000000000000000000000000000000000000060016040518663ffffffff1660e01b815260040161055795949392919061124b565b602060405180830381600087803b15801561057157600080fd5b505af1158015610585573d6000803e3d6000fd5b505050506040513d601f19601f820116820180604052508101906105a991906112b3565b9050807febf56642252004c18a776f30d528e7a0ce8c5db14b6596fb6550f630c8a24c6c60405160405180910390a250505050565b60008060009054906101000a900473ffffffffffffffffffffffffffffffffffffffff16905090565b6000600163ffffffff16905090565b6000600361ffff16905090565b6000600360009054906101000a900460ff16905090565b600060606000600360009054906101000a900460ff16600181111561066257610661610ee3565b5b6000600181111561067657610675610ee3565b5b14905060007f0000000000000000000000000000000000000000000000000000000000000000600154426106aa919061130f565b119050600080600280549050119050600080471190508380156106ca5750825b80156106d35750815b80156106dc5750805b955050505050915091565b60007f0000000000000000000000000000000000000000000000000000000000000000905090565b7f0000000000000000000000000000000000000000000000000000000000000000341015610769576040517fa4078c2400000000000000000000000000000000000000000000000000000000815260040160405180910390fd5b6000600181111561077d5761077c610ee3565b5b600360009054906101000a900460ff16600181111561079f5761079e610ee3565b5b146107d6576040517fbbf2a96900000000000000000000000000000000000000000000000000000000815260040160405180910390fd5b6002339080600181540180825580915050600190039060005260206000200160009091909190916101000a81548173ffffffffffffffffffffffffffffffffffffffff021916908373ffffffffffffffffffffffffffffffffffffffff1602179055503373ffffffffffffffffffffffffffffffffffffffff167f1d64fb5ba9f2548c5b98468d58f25b87b9e866afee0122e92d9fe722bf85076c60405160405180910390a2565b60006002828154811061089457610893611343565b5b9060005260206000200160009054906101000a900473ffffffffffffffffffffffffffffffffffffffff169050919050565b6000600154905090565b6000600280549050905090565b6000600280549050826000815181106108f9576108f8611343565b5b602002602001015161090b91906113a1565b905060006002828154811061092357610922611343565b5b9060005260206000200160009054906101000a900473ffffffffffffffffffffffffffffffffffffffff169050806000806101000a81548173ffffffffffffffffffffffffffffffffffffffff021916908373ffffffffffffffffffffffffffffffffffffffff1602179055506000600360006101000a81548160ff021916908360018111156109b6576109b5610ee3565b5b0217905550600067ffffffffffffffff8111156109d6576109d5610c40565b5b604051908082528060200260200182016040528015610a045781602001602082028036833780820191505090505b5060029080519060200190610a1a929190610b0f565b504260018190555060008173ffffffffffffffffffffffffffffffffffffffff1647604051610a4890611403565b60006040518083038185875af1925050503d8060008114610a85576040519150601f19603f3d011682016040523d82523d6000602084013e610a8a565b606091505b5050905080610ac5576040517f1c94012000000000000000000000000000000000000000000000000000000000815260040160405180910390fd5b8173ffffffffffffffffffffffffffffffffffffffff167f5b690ec4a06fe979403046eaeea5b3ce38524683c3001f662c8b5a829632f7df60405160405180910390a25050505050565b828054828255906000526020600020908101928215610b88579160200282015b82811115610b875782518260006101000a81548173ffffffffffffffffffffffffffffffffffffffff021916908373ffffffffffffffffffffffffffffffffffffffff16021790555091602001919060010190610b2f565b5b509050610b959190610b99565b5090565b5b80821115610bb2576000816000905550600101610b9a565b5090565b6000819050919050565b610bc981610bb6565b82525050565b6000602082019050610be46000830184610bc0565b92915050565b6000604051905090565b600080fd5b600080fd5b610c0781610bb6565b8114610c1257600080fd5b50565b600081359050610c2481610bfe565b92915050565b600080fd5b6000601f19601f8301169050919050565b7f4e487b7100000000000000000000000000000000000000000000000000000000600052604160045260246000fd5b610c7882610c2f565b810181811067ffffffffffffffff82111715610c9757610c96610c40565b5b80604052505050565b6000610caa610bea565b9050610cb68282610c6f565b919050565b600067ffffffffffffffff821115610cd657610cd5610c40565b5b602082029050602081019050919050565b600080fd5b6000610cff610cfa84610cbb565b610ca0565b90508083825260208201905060208402830185811115610d2257610d21610ce7565b5b835b81811015610d4b5780610d378882610c15565b845260208401935050602081019050610d24565b5050509392505050565b600082601f830112610d6a57610d69610c2a565b5b8135610d7a848260208601610cec565b91505092915050565b60008060408385031215610d9a57610d99610bf4565b5b6000610da885828601610c15565b925050602083013567ffffffffffffffff811115610dc957610dc8610bf9565b5b610dd585828601610d55565b9150509250929050565b600080fd5b60008083601f840112610dfa57610df9610c2a565b5b8235905067ffffffffffffffff811115610e1757610e16610ddf565b5b602083019150836001820283011115610e3357610e32610ce7565b5b9250929050565b60008060208385031215610e5157610e50610bf4565b5b600083013567ffffffffffffffff811115610e6f57610e6e610bf9565b5b610e7b85828601610de4565b92509250509250929050565b600073ffffffffffffffffffffffffffffffffffffffff82169050919050565b6000610eb282610e87565b9050919050565b610ec281610ea7565b82525050565b6000602082019050610edd6000830184610eb9565b92915050565b7f4e487b7100000000000000000000000000000000000000000000000000000000600052602160045260246000fd5b60028110610f2357610f22610ee3565b5b50565b6000819050610f3482610f12565b919050565b6000610f4482610f26565b9050919050565b610f5481610f39565b82525050565b6000602082019050610f6f6000830184610f4b565b92915050565b600080fd5b600067ffffffffffffffff821115610f9557610f94610c40565b5b610f9e82610c2f565b9050602081019050919050565b82818337600083830152505050565b6000610fcd610fc884610f7a565b610ca0565b905082815260208101848484011115610fe957610fe8610f75565b5b610ff4848285610fab565b509392505050565b600082601f83011261101157611010610c2a565b5b8135611021848260208601610fba565b91505092915050565b6000602082840312156110405761103f610bf4565b5b600082013567ffffffffffffffff81111561105e5761105d610bf9565b5b61106a84828501610ffc565b91505092915050565b60008115159050919050565b61108881611073565b82525050565b600081519050919050565b600082825260208201905092915050565b60005b838110156110c85780820151818401526020810190506110ad565b838111156110d7576000848401525b50505050565b60006110e88261108e565b6110f28185611099565b93506111028185602086016110aa565b61110b81610c2f565b840191505092915050565b600060408201905061112b600083018561107f565b818103602083015261113d81846110dd565b90509392505050565b60006020828403121561115c5761115b610bf4565b5b600061116a84828501610c15565b91505092915050565b60006040820190506111886000830185610eb9565b6111956020830184610eb9565b9392505050565b60006060820190506111b16000830186610bc0565b6111be6020830185610bc0565b6111cb6040830184610bc0565b949350505050565b6000819050919050565b6111e6816111d3565b82525050565b600067ffffffffffffffff82169050919050565b611209816111ec565b82525050565b600061ffff82169050919050565b6112268161120f565b82525050565b600063ffffffff82169050919050565b6112458161122c565b82525050565b600060a08201905061126060008301886111dd565b61126d6020830187611200565b61127a604083018661121d565b611287606083018561123c565b611294608083018461123c565b9695505050505050565b6000815190506112ad81610bfe565b92915050565b6000602082840312156112c9576112c8610bf4565b5b60006112d78482850161129e565b91505092915050565b7f4e487b7100000000000000000000000000000000000000000000000000000000600052601160045260246000fd5b600061131a82610bb6565b915061132583610bb6565b925082821015611338576113376112e0565b5b828203905092915050565b7f4e487b7100000000000000000000000000000000000000000000000000000000600052603260045260246000fd5b7f4e487b7100000000000000000000000000000000000000000000000000000000600052601260045260246000fd5b60006113ac82610bb6565b91506113b783610bb6565b9250826113c7576113c6611372565b5b828206905092915050565b600081905092915050565b50565b60006113ed6000836113d2565b91506113f8826113dd565b600082019050919050565b600061140e826113e0565b915081905091905056fea26469706673582212208b41c233f82d91be655c25f34724f8098a64f4073174857f75006a85f6ff382264736f6c63430008090033",
  "devdoc": {
    "author": "Patrick Collins",
    "details": "This implements the Chainlink VRF Version 2",
    "kind": "dev",
    "methods": {
      "checkUpkeep(bytes)": {
        "details": "This is the function that Chainlink VRF node calls to send the money to the random winner. Following should be true to return true: 1. our time interval should have passed 2. Lottery should at least have 1 player and have eth 3. our subscription should be fundede with LINK 4. Lottery should be in an open state"
      },
      "performUpkeep(bytes)": {
        "details": "Once `checkUpkeep` is returning `true`, this function is called and it kicks off a Chainlink VRF call to get a random winner."
      }
    },
    "title": "A sample Raffle Contract",
    "version": 1
  },
  "userdoc": {
    "kind": "user",
    "methods": {},
    "notice": "This contract is for creating a sample raffle contract",
    "version": 1
  },
  "storageLayout": {
    "storage": [
      {
        "astId": 886,
        "contract": "contracts/Lottery.sol:Lottery",
        "label": "s_recentWinner",
        "offset": 0,
        "slot": "0",
        "type": "t_address"
      },
      {
        "astId": 888,
        "contract": "contracts/Lottery.sol:Lottery",
        "label": "s_lastTimeStamp",
        "offset": 0,
        "slot": "1",
        "type": "t_uint256"
      },
      {
        "astId": 893,
        "contract": "contracts/Lottery.sol:Lottery",
        "label": "s_players",
        "offset": 0,
        "slot": "2",
        "type": "t_array(t_address_payable)dyn_storage"
      },
      {
        "astId": 896,
        "contract": "contracts/Lottery.sol:Lottery",
        "label": "s_lotteryState",
        "offset": 0,
        "slot": "3",
        "type": "t_enum(LotteryState)867"
      }
    ],
    "types": {
      "t_address": {
        "encoding": "inplace",
        "label": "address",
        "numberOfBytes": "20"
      },
      "t_address_payable": {
        "encoding": "inplace",
        "label": "address payable",
        "numberOfBytes": "20"
      },
      "t_array(t_address_payable)dyn_storage": {
        "base": "t_address_payable",
        "encoding": "dynamic_array",
        "label": "address payable[]",
        "numberOfBytes": "32"
      },
      "t_enum(LotteryState)867": {
        "encoding": "inplace",
        "label": "enum Lottery.LotteryState",
        "numberOfBytes": "1"
      },
      "t_uint256": {
        "encoding": "inplace",
        "label": "uint256",
        "numberOfBytes": "32"
      }
    }
  }
}